:020000040800F2
:10000000F027002021010008950900088D0900084B
:100010009109000835070008871300080000000058
:10002000000000000000000000000000E70D0008D4
:10003000390700080000000045010008D10E000843
:100040003B0100083B0100083B0100083B010008A0
:100050003B0100083B0100083B0100083B01000890
:100060003B0100083B0100083B0100083B01000880
:100070003B0100083B0100083B0100083B01000870
:100080003B0100083B0100083B0100083B01000860
:100090003B0100083B0100083B0100083B01000850
:1000A0003B0100083B0100083B0100083B01000840
:1000B0003B0100083B0100083B0100083B01000830
:1000C0003B0100083B0100083B0100083B01000820
:1000D0003B010008C11100083B0100083B0100087A
:1000E0003B0100083B0100083B010008DFF80CD091
:1000F00000F080FA0048004729260008F027002079
:10010000EFF30980704780F309887047EFF30880A8
:10011000704780F30888704740BA7047C0BA70478C
:100120000648804706480047FEE7FEE7FEE7FEE791
:10013000FEE7FEE7FEE7FEE7FEE7FEE7D90E000872
:10014000ED000008EFF30980002804D020E9F00F4B
:1001500008490A6810600749074A13680B60054997
:100160000A681068B0E8F00F80F309886FF0020E9B
:10017000704700004C0000205000002040EA0103BE
:100180009B0703D009E008C9121F08C0042AFAD24D
:1001900003E011F8013B00F8013B521EF9D2704711
:1001A000421C10F8011B0029FBD1801A704710B5C2
:1001B000002200E0521C835C8C5CA34201D1002B26
:1001C000F8D1D8B2E1B2401A10BD30B504460020D3
:1001D000034600E05B1C934203D2E05CCD5C401B15
:1001E000F8D030BD034611F8012B00F8012B002A8E
:1001F000F9D11846704730B50B4601460020202241
:10020000012409E021FA02F59D4205D303FA02F523
:10021000491B04FA02F52844151EA2F10102F1DC83
:1002200030BD2DE9F05F0546002092469B4688468A
:100230000646814640241BE0284641464746224662
:1002400000F0F9F953465A46C01A914110D31146AD
:100250001846224600F0E0F92D1A67EB01084F46D8
:1002600022460120002100F0D7F917EB00094E418A
:10027000201EA4F10104DFDC484631462A464346ED
:10028000BDE8F09F2DE9FE4F804681EA0300C00FD4
:100290000C46009021F0004123F00045B8EB02002D
:1002A000A94105D24046214690461C460B460246CF
:1002B00023F00040104347D0270DC7F30A00C3F3D3
:1002C0000A510290401A019040286BDAC3F31300E0
:1002D00040F4801B0098924620B10023D2EB030A21
:1002E00063EB0B0B01985946C0F14002504600F0F9
:1002F00093F906460D4650465946019A00F0ABF96F
:1003000010EB08006141002487EA115284EAE77388
:100310001A4340D0009A62B3019A012A4FEA075269
:1003200015DC001B61EB02014FF0004202EA0752AC
:10033000CDE90042001C41F5801132462B4600F009
:10034000ABF903B0BDE8F08F40462146F9E7001B4A
:1003500061EB0201001C41F5801300185B4120187D
:10036000A2F5001747EB030140EAD570B6196D41BD
:1003700011E06D084FEA360645EAC0754FEA0752AC
:10038000001B61EB0201001C41F5801149084FEA96
:1003900030000019514132462B4603B0BDE8F04F02
:1003A00000F06BB90098012240000023D0EB02025C
:1003B00063EBE073009821464FEAE074B8EB00006D
:1003C00061EB0401E9E783F000435BE781F0004162
:1003D00058E72DE9FE4F81EA030404F0004421F0C0
:1003E000004100944FF0000B23F0004350EA010459
:1003F0005ED052EA03045BD0C3F30A54C1F30A553A
:100400002C44A4F2F3340194A0FB0254C1F3130171
:1004100041F48011C3F3130343F4801301FB02443E
:1004200000FB034E840A970A44EA815447EA835743
:10043000A4FB076802958D0A05FB07854FEA932CFC
:1004400004FB0C542705029D4FEA065847EA16376D
:10045000B5EB08056EEB070C870E920E47EA811785
:1004600042EA8312A7FB0201B6EB0B0164EB000426
:100470002B0D43EA0C335E1844EB1C50DA46514610
:10048000E7FB0201C5F313044FEA0B3343EA1453AD
:100490004FEA0432019C43EA0603A4F10C040294DF
:1004A000009CCDE900B400F0F7F803B0BDE8F08F90
:1004B00000200146F9E72DE9F04D81EA030404F03C
:1004C000004B21F0004514464FF0000A23F0004194
:1004D00050EA050220D054EA01021DD0C5F30A57A4
:1004E0000246C5F31303C1F31300C1F30A5640F4E7
:1004F000801543F48013A7EB0608101BD64608F2BC
:10050000FD3873EB050002D308F1010801E09218F1
:100510005B41B8F1000F03DA00200146BDE8F08D21
:1005200000204FF48011064684460EE0171B73EB43
:10053000050705D3121B63EB050306434CEA010CC8
:1005400049084FEA300092185B4150EA0107EDD1AB
:1005500052EA030012D082EA040083EA050108434C
:1005600005D0101BAB4106D20122002306E0002279
:100570004FF0004302E06FF0010253101AEB060047
:100580004CEB085110EB0A0041EB0B01BDE8F04DBC
:1005900000F073B8C1F30A52C1F3130140F2FF3304
:1005A00041F480119A4202DA00200146704740F27D
:1005B00033439A42A2F2334202DC524200F03BB88B
:1005C00000F02AB830B5041E71F1000404DB4FF0CE
:1005D0000044404264EB0101141E73F1000405DB8A
:1005E0001C464FF00043524263EB0403994208BF9C
:1005F000904230BD064C074D06E0E06840F0010334
:1006000094E8070098471034AC42F6D3FFF772FD28
:10061000DC390008FC390008202A04DB203A00FA03
:1006200002F1002070479140C2F1200320FA03F349
:10063000194390407047202A04DB203A21FA02F047
:100640000021704721FA02F3D040C2F1200291400C
:10065000084319467047202A06DBCB17203A41FA97
:1006600002F043EAE07306E041FA02F3D040C2F13F
:100670002002914008431946704710B5141E73F1CB
:10068000000408DA401C41F1000192185B411A4352
:1006900001D120F0010010BD2DE9F04D92469B469E
:1006A00011B1B1FA81F202E0B0FA80F22032904644
:1006B000FFF7B2FF04460F4640EA0A0041EA0B0189
:1006C00053465A46084313D0114653EA010019D045
:1006D000C8F140025046FFF7AEFF05460E465046B1
:1006E00059464246FFF798FF084305D0012004E031
:1006F00020463946BDE8F08D0020054346EAE07605
:100700002C4337430A986305E40AA0EB0800002253
:10071000FD0A44EA47540A3002D500200146E9E7C1
:10072000010510196941DDE9084500196941BDE875
:10073000F04DA2E700BFFEE7704700000149C86026
:10074000704700000020024030B5044604254FF4F5
:10075000302000F06FF80546042D17D10C480069D1
:1007600040F002000A49086108464461006940F00F
:10077000400008614FF4302000F05CF80546044862
:10078000006941F6FD71084001490861284630BD05
:100790000020024004200B49C96801F0010109B1A1
:1007A00001200EE00749C96801F0040109B10220E7
:1007B00007E00449C96801F0100109B1032000E015
:1007C00004207047002002400348006940F0800088
:1007D00001490861704700000020024070B50446DE
:1007E0000D460426F00200F025F80646042E11D12D
:1007F0000948006940F00100074908612580F002BE
:1008000000F018F806460448006941F6FE710840F9
:1008100001490861304670BD00200240024803498A
:100820004860034848607047230167450020024044
:10083000AB89EFCD00B502460423FFF7ABFF0346BB
:1008400003E0FFF7A7FF0346521E012B01D1002A48
:10085000F7D102B90523184600BD2DE9F041024643
:1008600000250026002000230024002791F803C063
:100870000CF00F0591F803C00CF0100CBCF1000F48
:1008800003D091F802C04CEA050591F800C0BCF114
:10089000000F31D0146800202BE04FF0010C0CFA4F
:1008A00000F3B1F800C00CEA03069E4220D1830099
:1008B0004FF00F0C0CFA03F7BC4305FA03FC4CEAAB
:1008C000040491F803C0BCF1280F06D14FF0010CCD
:1008D0000CFA00FCC2F814C00AE091F803C0BCF1A5
:1008E000480F05D14FF0010C0CFA00FCC2F810C003
:1008F000401C0828D1D31460B1F800C0BCF1FF0F30
:1009000034DD546800202EE000F1080C4FF001089F
:1009100008FA0CF3B1F800C00CEA03069E4221D19C
:1009200083004FF00F0C0CFA03F7BC4305FA03FCED
:100930004CEA040491F803C0BCF1280F05D100F182
:10094000080C08FA0CF8C2F8148091F803C0BCF146
:10095000480F07D100F1080C4FF0010808FA0CF815
:10096000C2F81080401C0828CED35460BDE8F08146
:1009700002460020D3680B400BB1012000E00020AC
:1009800070470AB1016100E04161704700BFFEE7B6
:1009900000BFFEE77047000029B1064A52690243D2
:1009A000044B5A6104E0034A52698243014B5A6185
:1009B000704700000010024029B1064AD269024384
:1009C000044BDA6104E0034AD2698243014BDA61E5
:1009D000704700000010024029B1064A92690243A4
:1009E000044B9A6104E0034A92698243014B9A6185
:1009F000704700000010024030B5002100220024A2
:100A000000232D4D6D6805F00C0121B1042905D09E
:100A1000082923D105E0294D056022E0274D056016
:100A20001FE0254D6D6805F47012234D6D6805F4C7
:100A30008034022505EB92421CB9214D55430560D7
:100A40000BE01D4D6D6805F400351DB11C4D55437F
:100A5000056002E0194D5543056002E0174D056041
:100A600000BF00BF144D6D6805F0F0010909154D78
:100A70006B5C0568DD4045600F4D6D6805F4E06115
:100A8000090A104D6B5C4568DD4085600A4D6D6854
:100A900005F46051C90A0B4D6B5C4568DD40C560CB
:100AA000054D6D6805F44041890B074D6B5CC568C9
:100AB000B5FBF3F5056130BD0010024000127A006D
:100AC00000093D00240000203400002010B500F093
:100AD0005DFC10BD2DE9F04104460D46164600BFF1
:100AE0000D48007808B900F051FC00BFEFF3118009
:100AF0000746202080F3118800BF00BF32462946F8
:100B0000204600F00BF88046F8B280F3118800BF51
:100B100000BF4046BDE8F081740000202DE9F04799
:100B2000074688461646C24607EB47011B4800EBBE
:100B3000C109D9F8140020B1012811D0022826D10A
:100B40001EE0484600F05AFC0546B54201D200249A
:100B500005E0344632465146484600F0A4FD18E010
:100B6000484600F04BFC0546B54201D2284600E05D
:100B70003046044622465146484600F094FD08E0BF
:100B800032465146484600F055FD044601E0002437
:100B900000BF00BF2046BDE8F08700008C000020A9
:100BA00070B505460C462046FFF7FAFA064632466F
:100BB00021462846FFF78EFF70BD0FB438B50446B6
:100BC00006A800906A462046059900F007F80546F9
:100BD00000200090284638BC5DF814FB2DE9F04F4A
:100BE00099B082460D46144603A8149040201590F3
:100BF00000201690CDF860A0179000BF2E786D1CD5
:100C000006B9DDE0252E79D100274FF0010900BF9C
:100C10002E78232E12D02B2E0CD02D2E02D0302E3B
:100C200010D103E047F001076D1C0EE047F002070A
:100C30006D1C0AE047F004076D1C06E047F008074A
:100C40006D1C02E04FF0000900BF00BFB9F1000FBA
:100C5000DED14FF0000800BF2E78302E01DB392E98
:100C600000DD07E06D1CA6F1300008EB880100EB09
:100C70004108F1E700BF002013902E782E2E12D1EC
:100C80006D1C00BF2E78302E01DB392E00DD09E00F
:100C90006D1CA6F13000139901EB810100EB4100BE
:100CA0001390EFE700BF2E7800BF6C2E01D0682EA6
:100CB00002D16D1C2E7800E000E0F6E700BF702E38
:100CC0005DD008DC252E6AD0582E35D0632E09D091
:100CD000642E69D113E0732E3CD0752E1DD0782E72
:100CE00062D128E02168081D2060D1F8009009F049
:100CF000FF0B594614A800F07BFC56E058E0216831
:100D0000081D2060D1F80090CDE900870A224946ED
:100D100014A8139B00F080FB47E02168081D2060A9
:100D2000D1F80090CDE900870A22494614A8139B08
:100D300000F0E8FB39E000BF2168081D2060D1F811
:100D40000090CDE900871022494614A8139B00F0BB
:100D5000D9FB2AE02168081D2060D1F800B000BF4F
:100D60009BF800600BF1010B06B906E0314614A8B0
:100D700000F03EFC17980028F2DA00BF15E0216869
:100D8000081D2060D1F80090002008210B46102299
:100D9000CDE90010494614A800F0B4FB05E0252178
:100DA00014A800F025FC00E000BF00BF6D1C03E0AC
:100DB000314614A800F01CFC17980028BFF61EAF9F
:100DC00000BF179800280ADD169820B103A95046E5
:100DD000169AFFF77FFEDDE9161008441790179862
:100DE00019B0BDE8F08F704710B500F001F810BDE4
:100DF0000CB50020019000903348006840F480302A
:100E00003149086000BF3048006800F400300090AD
:100E10000198401C0190009818B90198B0F5A06F96
:100E2000F1D12948006800F4003010B10120009091
:100E300001E0002000900098012843D12348006879
:100E400040F01000214908600846006820F00300C7
:100E500008600846006840F0020008601A484068D0
:100E6000194948600846406848600846406840F4B0
:100E7000806048600846406820F47C10486008465E
:100E8000406840F4E81048600846006840F0807010
:100E9000086000BF0C48006800F000700028F9D01E
:100EA0000948406820F00300074948600846406848
:100EB00040F00200486000BF0348406800F00C00AA
:100EC0000828F9D10CBD00000010024000200240AB
:100ED00010B502F0BDF810BD10B51348006840F021
:100EE00001001149086008464068104908400E4951
:100EF0004860084600680E4908400B4908600846EB
:100F0000006820F4802008600846406820F4FE0055
:100F100048604FF41F008860FFF766FF4FF00060E5
:100F20000449086010BD0000001002400000FFF8F6
:100F3000FFFFF6FE08ED00E008B50446254618E080
:100F4000002000902A460BA1FFF737FE002003E0A7
:100F50000099491C0091401C42F210718842F7DB55
:100F600005EB85014FF4FA7202EB410001F070FCD1
:100F700000BFE5E7E68891E698AFE4BBBBE58AA150
:100F800025640D0A000000002AA002F0F5FA2B49A2
:100F9000086008460068002809DA29A10020FFF748
:100FA0000CFE03E04FF47A7001F052FCFAE701F016
:100FB000DDF82A480021016041608160C1601F485E
:100FC00027A102680020FFF7F8FD32E02B4801F06E
:100FD0000BFA18B1152001F033FA2AE027484078BF
:100FE000012804D0022807D003280ED109E02348A5
:100FF00001F0A4F904460BE0204801F0F5F804469E
:1010000006E001F04DF9044602E04FF0FF3400BF66
:1010100000BF0CB9062100E01521084601F010FAC6
:1010200034B116484278234615A10020FFF7C5FDCC
:1010300000BFCBE775617274310000002000002012
:101040005B4941505D206E6F207561727431206480
:101050006576696365210D0A0000000024090020FF
:101060005B4941505D207461736B207265616479E6
:101070002C2066643D25640D0A0000003409002020
:101080005B4941505D20636D643D253032782065B9
:1010900072723D25640D0A0088B0022001F0D8FB71
:1010A000002033490860642001F0D2FB304800681A
:1010B00000EB800040002F49086001202E49087095
:1010C0002C482E4902680020FFF777FD01201721E8
:1010D00002022B4BCDE90032CDE902100023294A50
:1010E00029A12B4801F040FF012015210202294BC4
:1010F000CDE90032CDE902100023274A27A1294873
:1011000001F032FF224801F087FF264801F084FFFA
:10111000002423E0234624A2102104A800F0EAFAC8
:10112000012204F10A00C0B28023224901EB4421CC
:10113000CDE90013CDE90202C4EB04111E4A02EB13
:10114000810023461D4A04A901F00EFFC4EB0411DF
:10115000194A02EB810001F05FFF641C012CD9DB0E
:1011600005E001F0E7FD4FF4FA6001F071FBF8E7EC
:10117000540000205C00002060000020943900082A
:10118000840E0020890F00085461736B4200000038
:10119000C01A002084120020F13700085461736BDC
:1011A00043000000FC1A0020436C6F6E655F2564ED
:1011B00000000000741B0020741D0020390F00087F
:1011C00010B540F22551094800F03EF801280CD135
:1011D000064800F0CFF8064908700120054908705C
:1011E00040F22551014800F007F810BD00380140D9
:1011F000140000201500002010B50022002340F646
:101200006A14A14200D100BF0A1201249440A3B283
:10121000DC43048010BD21B1828942F400528281F6
:1012200004E082894DF6FF731A40828170470246BE
:101230000020B1F5007F00D100BF13880B400BB137
:10124000012000E00020704770B502460024002312
:101250000025002040F66A16B14200D100BFC1F35C
:10126000421501F01F03012606FA03F3012D02D1F6
:101270009689334006E0022D02D1168A334001E000
:10128000968A33400C12012606FA04F4168834407C
:1012900013B10CB1012000E0002070BD2DE9F04732
:1012A00086B005460E460024A24600BFA146002790
:1012B000B08900B100BF2F462C8A4CF6FF70044065
:1012C000F08804432C82AC894EF6F3100440B088B9
:1012D00031890843718908430443AC81AC8A4FF6D5
:1012E000FF400440B0890443AC8201A8FFF784FBAF
:1012F0001F48874202D1DDF810A001E0DDF80CA004
:10130000A88900F4004040B10AEBCA0000EB0A10C3
:1013100031684900B0FBF1F807E00AEBCA0000EBC6
:101320000A1031688900B0FBF1F86420B8FBF0F0D6
:1013300004012009642101FB1089A88900F4004000
:1013400040B1322000EBC900B0FBF1F000F0070023
:10135000044308E0322000EB09106421B0FBF1F0F7
:1013600000F00F0004432C8106B0BDE8F0870000B8
:101370000038014001468888C0F308007047C1F377
:1013800008028280704700BFFEE7000010B5124CD3
:1013900003202061606111A0A0611349E1614FF455
:1013A000806121620021A1626162E1620BA020667E
:1013B0000E4961661021A16600212167E16661671F
:1013C0000BA1E01DFEF70EFF0AA12046FEF70AFF63
:1013D0002020A07110BD0000740000205465726DC3
:1013E000696E616C000000001C0100201C050020DB
:1013F00052545400534547474552000010B501462A
:101400000A69CB689A4204D88C68641EE41AA01852
:1014100001E0D41A601E10BD2DE9FC5F06460F46A0
:1014200092469846DDE90C45002F01DA784200E04B
:10143000384683464FF0010903E09BFBFAFB09F1B4
:101440000109D345F9DAC84500D9C14634B1002FA6
:1014500003DB05F00400042800D1641E05F002003F
:1014600010B1B8F1000F11D005F0010070B96CB1E6
:1014700008E0641E2021304600F0BAF8F068002829
:1014800000DA02E00CB1A145F3D300BFF0680028F8
:1014900036DB002F05DA7F422D21304600F0A8F818
:1014A00007E005F00400042803D12B21304600F0AA
:1014B0009FF8F068002823DB05F00200022814D111
:1014C00005F0010088B9B8F1000F0ED16CB108E049
:1014D000641E3021304600F08BF8F068002800DAF6
:1014E00002E00CB1A145F3D300BFF068002807DB90
:1014F0004346524639463046CDE9004500F002F8F1
:10150000BDE8FC9F2DE9FC5F8046894615461E46D6
:101510000C9CCDF804900127BB4605E00198B0FB78
:10152000F5F001900BF1010B0198A842F6D25E454F
:1015300000D9B3460D9800F00100D0B9CCB10D9898
:1015400000F00200022803D116B93020009001E01B
:101550002020009009E0641E4046009900F048F801
:10156000D8F80C00002800DA02E00CB1A345F2D351
:1015700000BFD8F80C00002835DB09E0012E01D9A6
:10158000761E04E0B9FBF7FAAA4500D201E06F43EA
:10159000F4E700BF00BFB9FBF7FA0AFB179913483D
:1015A00010F80A10404600F023F8D8F80C00002884
:1015B00000DA03E0B7FBF5F7002FECD100BF0D9880
:1015C00000F0010078B174B109E0641E20214046AA
:1015D00000F00EF8D8F80C00002800DA02E00CB198
:1015E000A345F2D300BFBDE8FC9F0000C838000847
:1015F00070B504460E46A568681C6168814206D332
:1016000020684655681CA060E068401CE060D4E992
:10161000011088420DD1A26821682069FFF75AFAAB
:10162000A168884203D04FF0FF30E06001E0002065
:10163000A06070BD2DE9F0470446894617464FF07B
:10164000000AE56800BFD4F81080A84503D9A8EBCC
:101650000500461E04E0A5EB0800401CA1680E1A18
:10166000A068401BB04201D9304601E0A068401B91
:101670000646BE4201D2304600E038460646616862
:10168000481932464946FEF779FDB244B144BF1BC2
:101690003544A068A84200D10025E560002FD2D1D2
:1016A0005046BDE8F0872DE9F047044689461546C7
:1016B000E668A068871BAF4208D9616888192A4686
:1016C0004946FEF75BFD7019E06010E0B8466168BE
:1016D000881942464946FEF751FDA5EB070809EB7C
:1016E000070142466068FEF749FDC4F80C80BDE87A
:1016F000F08700000FB41CB50246002007AC00299B
:101700000BD0491ECDE90021054B6A4621460698BB
:1017100000F0DAF8009A002111701CBC5DF814FB8F
:10172000F71F000802E008C8121F08C1002AFAD1FA
:1017300070477047002001E001C1121F002AFBD151
:10174000704700002DE9FF5F82B00021DDE9043021
:10175000020DDDF840B0034318D044F61050A2F259
:10176000FF3242431514119801281FD0A5EB0B003E
:10177000401C5FEA000A4FF000064E4FDFF8389138
:10178000B046504615D5CAF1000413E01198012463
:101790004AA3012801D16FEA0B010298119AC0E90E
:1017A0000031C0E9024206B0BDE8F09FCBF1000075
:1017B000DFE704460021404A491842EB0450CDE9D6
:1017C000001012E0E00707D032463B46404649464B
:1017D000FEF7FFFD8046894632463B4610461946D5
:1017E000FEF7F7FD06460F466410002CEAD1DDE94E
:1017F0000401DDE90023BAF1000F06DAFEF7E9FD86
:1018000042464B46FEF7E5FD05E0FEF754FE424634
:101810004B46FEF750FE04460E460022284BFEF7CC
:10182000D1FE03D84FF0FF30014607E00022254BE0
:1018300020463146FEF726FDFEF7ACFE102409E0F7
:10184000002C0ADB0A220023FEF7EBFC039B30325C
:101850001A55641E50EA0102F2D1641C039AC4F1C5
:1018600011031444119A012A03D0012208430DD117
:101870000AE0084304D000204FF0110B119072E7EA
:10188000A3EB0B056D1E0DE05B4504DD4FF0000280
:1018900005F1010504E003DA4FF00002A5F10105AE
:1018A000002AECD002981199C0E90231C0E9004544
:1018B00079E70000000014400000F03F3000000015
:1018C0000000F0430000E03F2DE9FF4F95B09B463C
:1018D0008946064600250FE2252877D100242746B1
:1018E000F84A0121059400E0044316F8013F203B2B
:1018F00001FA03F01042F7D130782A2811D06FF0A6
:101900002F033078A0F13002092A16D8059A44F046
:10191000020402EB820203EB42021044761C0590A3
:10192000EFE759F8042B0592002A03DA504244F4F9
:101930000054059044F00204761C30782E2816D10D
:1019400016F8010F44F004042A280DD06FF02F027E
:101950003078A0F13003092B09D807EB870302EB9D
:101960004303C718761CF3E759F8047B761C3078DC
:101970006C280FD006DC4C2817D068280DD06A28B8
:1019800014D104E0742810D07A280FD10DE044F46B
:1019900000140AE044F4801401E044F44014727826
:1019A000824202D104F58014761C761C30786628B9
:1019B0000BD013DC582877D009DC002875D04528D7
:1019C000F6D04628F4D047281AD19DE118E06328C4
:1019D00035D0642879D0652812D195E1702873D06C
:1019E00008DC6728F1D069286FD06E280DD06F28E9
:1019F00006D1B5E073282CD0752875D0782874D01E
:101A00005A46179990476D1C75E1C4F3025002289D
:101A100009D003280DD0D9F8001004280DD00D608E
:101A200009F1040967E1D9F80010EA17C1E9005289
:101A3000F6E7D9F800100D80F2E70D70F0E719F81D
:101A4000041B8DF8001000208DF80100EA460120EB
:101A500003E059F804AB4FF0FF3061074FF000018D
:101A600002D40DE008F101018846B9420FDA804541
:101A7000F8DB1AF808100029F4D108E008F1010198
:101A800088468142FADB1AF808100029F6D1059839
:101A90005B46A0EB080721463846179A00F094FAF7
:101AA000284400EB080507E04DE029E10DE01AF8B5
:101AB000010B5A4617999047B8F10108F7D25B46D7
:101AC00021463846179A13E142E00A220092C4F3F5
:101AD00002524FF0000A022A08D059F804CB032A18
:101AE0004FEAEC710AD00DE029E02AE009F1070184
:101AF00021F00702F2E802C1914609E00FFA8CFCDE
:101B00004FEAEC71042A03D14FFA8CFC4FEAEC71D6
:101B1000002907DA0A460021DCF1000C61EB020122
:101B20002D2202E0220504D52B228DF8042001226B
:101B300003E0E20701D02022F7E7904659E00A21AE
:101B400002E010220DE010214FF0000A00910BE09E
:101B500010224FF0000A44F004040827009203E02A
:101B600008224FF0000A0092C4F30252022A05D064
:101B700059F804CB0021032A08D009E009F1070134
:101B800021F00702F2E802C1914605E01FFA8CFC41
:101B9000042A01D10CF0FF0C4FF00008220728D5D1
:101BA000702806D0009B83F0100353EA0A0305D087
:101BB0000EE040228DF80420012208E05CEA0102D8
:101BC00006D030228DF804208DF8050002229046C0
:101BD000009B83F0080353EA0A030AD15CEA01027E
:101BE00001D1620705D530228DF804204FF001089D
:101BF0007F1E582804D034A003900EA802900DE058
:101C000036A0F9E753466046009AFEF70AFB844681
:101C10000398825C0298401E029002705CEA010008
:101C2000F0D1029806A9081A00F1200A600702D52F
:101C300024F4803400E00127574502DDA7EB0A00B9
:101C400000E0002000EB0A01009005984144401A92
:101C50000590E00306D45B462146179A059800F0EC
:101C6000B3F90544002706E001A85A46C05D17995C
:101C700090476D1C7F1C4745F6DBE0030CD55B46A7
:101C80002146179A059800F09FF9054404E030209A
:101C90005A46179990476D1C0099481E00900029DC
:101CA000F5DC08E0029802995A460078491C029136
:101CB000179990476D1CBAF10001AAF1010AF1DCF5
:101CC00065E1000009280100303132333435363700
:101CD0003839616263646566000000003031323378
:101CE0003435363738394142434445460000000018
:101CF00000F058F90544761C307800287FF4ECADEC
:101D000019B02846BDE8F08F620700D4062709F114
:101D1000070222F0070CFCE80223E14603F000482A
:101D20005FEA080C02D00FF2702C0DE05FEA045C51
:101D300002D50FF2682C07E05FEAC47C02D00FF2F4
:101D4000602C01E0AFF2700C4FF0FF3823F000433D
:101D5000CDF850C065280CD006DC452809D04628AF
:101D60001DD047283DD13DE0662818D067287ED198
:101D700038E00021112F01DB112000E0781CCDE9B3
:101D8000000106A90EA8FFF7DDFCDDE90F010E9AA0
:101D900003910021009207F1010A04914DE04FF0F8
:101DA00000400097CDE9011006A90EA8FFF7CAFC74
:101DB000DDE90F0203920E9B11990022DDF80CA0C1
:101DC0000093049211B9791C00EB010AB7EB0A00E9
:101DD00004D4C0F1FF3007F1010A0490AAEB070018
:101DE000019044E0012F00DA01270021112F01DDCD
:101DF000112000E03846CDE9000106A90EA8FFF742
:101E0000A1FCDDE90F010E9A0391002104910092DB
:101E1000BA4621070CD40399514500DA8A46BAF133
:101E2000010F05DD009AAAF10101515C302908D0AB
:101E3000B84202DA10F1040F06DA0121CDE90110EF
:101E400015E0AAF10101E9E7002805DC0499014445
:101E50000491AAEB000102E0411C514500DD8A46D5
:101E60000499401A401C01904FF000400290200756
:101E700004D40198504501DBCDF8048000208DF892
:101E80004F0002980DF14F07B0F1004F25D02B20E5
:101E90000E9002984FF0020800280CDA404202909F
:101EA0002D200E9007E00A210298FEF7A4F93031A8
:101EB000029007F8011DB8F10001A8F10108F2DC59
:101EC00002980028EFD1791E0E980870307800F043
:101ED000200040F0450007F8020D12A8C01B00F1D9
:101EE00007081498007800B1012000EB0A0101985E
:101EF00001EBE07105984144401A401E0590E00353
:101F000006D45B462146179A059800F05DF8054413
:101F10001498007818B15A46179990476D1CE00341
:101F200024D55B462146179A059800F04DF80544E4
:101F30001CE00498002807DBDDE90301884203DD8B
:101F40000098405C179901E0179930205A46904755
:101F5000049805F10105401C04900198401E019071
:101F600004D12E205A46179990476D1CBAF10001F2
:101F7000AAF1010ADDDC05E017F8010B5A461799B2
:101F800090476D1CB8F10001A8F10108F4DC5B4634
:101F90002146179A0598ABE62D0000002B000000A3
:101FA000200000002DE9F041044600251E4617469A
:101FB000880404D405E039462020B0476D1C641E17
:101FC000F9D52846BDE8F0812DE9F0410446002509
:101FD0001E469046C80301D5302700E0202788041C
:101FE00004D505E041463846B0476D1C641EF9D55E
:101FF0002846BDE8F0814A68002A06D00A68531CCA
:102000000B6010704868401E4860704770B502460B
:102010000B4600210120154CA0600FE0545C481CC9
:10202000105C44EA0024881C105C44EA0044C81C8C
:10203000105C44EA00600D4C2060091D081D9842A8
:10204000ECD999420ED20024002005E00D18555D10
:10205000C600B5402C43401C0D189D42F6D30348E2
:10206000046000BF0148006870BD000000300240FD
:102070002DE9F04704460D466F68012F06D0032F67
:1020800011D0042F1DD0052F48D12EE0E168E8685B
:102090000E18304601F070FA804604F11400A96869
:1020A00040F821803AE004F11400A96850F821605A
:1020B000D5F80C8000224146304601F027FA8146CF
:1020C0002CE004F11400A96850F82180E168E86868
:1020D0000E183046FEF764F8824653463246002119
:1020E000404601F0C7FA814618E004F11400A968DF
:1020F00050F82160E96800EB810804234246002182
:10210000304601F065FA8146B9F1000F05DC022086
:102110006070A66020691038206100BF00BFBDE874
:10212000F08770B505460E463146284600F094F912
:1021300010B94FF0FF3070BDFEF770FB3420FEF792
:10214000FDFA2C460BE02046FEF7FEFA042804D0E8
:10215000FEF73AFB6FF00100EDE704F58064A81983
:10216000A042F0D8FEF730FB0020E4E710B50121D3
:102170004020FEF711FC012004498860FEF74EFB69
:102180003420FEF7DBFAFEF71FFB10BD00300240E3
:102190002DE9F04107460D4616463146384600F017
:1021A0005BF918B96FF00200BDE8F081FEF736FB6D
:1021B0003420FEF7C3FA002410E0295D601C285C7F
:1021C00041EA002838194146FEF708FB042804D0EC
:1021D000FEF7FAFA6FF00300E6E7A41CB442ECD372
:1021E000FEF7F2FA0020DFE77CB504462248007BC8
:1021F00008B1608810B94FF0FF307CBD618804F1F0
:102200000C00FFF703FFA168884202D06FF00100C5
:10221000F3E7658805F0010030B1FF222846691C0C
:102220008DB204F10C010A5460682A4604F10C01D5
:10223000FFF7AEFF10B16FF00200DEE76288606862
:1022400004F10C01FDF7C1FF10B16FF00300D4E7FA
:102250000948806861880844074988600846006822
:102260008968CDE900106388626804A10020FEF748
:10227000A4FC0020C1E70000240900205B49415074
:102280005D2064617461204025303878206C656E73
:102290003D2564202825642F2564290D0A000000AF
:1022A00010B51548007B28B11348806812490968A9
:1022B000884202D24FF0FF3010BD0F4801680F482E
:1022C000FFF7A4FE044600200B4908730846406847
:1022D000A04209D00846224609A143680020FEF723
:1022E0006CFC6FF00100E7E722460DA10020FEF72D
:1022F00064FC0020E0E70000240900200040000802
:102300005B4941505D20637263206661696C3A20CD
:102310002530387820213D20253038780D0A0000FE
:102320005B4941505D2066696E697368206F6B2C54
:10233000206372633D253038780D0A0070B504467D
:102340006088042802DA4FF0FF3070BD217B607B8B
:1023500041EA0021A07B41EA0041E07B41EA0065BF
:1023600015B1B5F5804F02D96FF00100EDE72946B0
:102370000B48FFF7D6FE10B16FF00200E5E7094801
:102380000560A06807494860002088600120087344
:10239000A3682A4604A10020FEF70FFC0020D4E722
:1023A00000400008240900205B4941505D207374FF
:1023B0006172742C20746F74616C3D2564206372AB
:1023C000633D253038780D0A0000000070B50446E2
:1023D0000D462B46224600210248006801F0F8F81D
:1023E00070BD00002000002070B50446254600BFE7
:1023F00001212046FFF7EAFF2078A528F8D10B211C
:10240000681CFFF7E3FF6088B0F5807F02DD4FF0C6
:10241000FF3070BD6088002804DD618804F10C0085
:10242000FFF7D4FF012104F58670FFF7CFFF94F882
:102430000C015A2802D04FF0FF30EAE70020E8E70D
:1024400001B501236A4600210248006801F012F933
:1024500008BD00002000002002460548824203D348
:102460005018044B984201D9002070470120FCE726
:1024700000400008008000082DE9F04105460E46A6
:102480001746AC6826B1012E0DD0022E24D115E0DE
:10249000237B0BB9012300E000231A46A1882068A2
:1024A000FEF76FFA18E0237B012B00D100E0002338
:1024B0001A46A1882068FEF764FA0DE0A18820681A
:1024C000FEF756FAC0F1010000F0FF08A18842466D
:1024D0002068FEF756FA00BF00BF0020BDE8F0817B
:1024E000F8B505460E46AC6812492068884204D10A
:1024F00001210420FEF770FA0CE00F4920688842A1
:1025000004D101210820FEF767FA03E00121102021
:10251000FEF762FA10208DF8030003208DF8020008
:10252000A088ADF8000069462068FEF796F9002003
:10253000F8BD000000080140000C01402DE9F04109
:1025400005460E461746984600243AE01F4800EB21
:102550000410806898BB01201C4901EB04118860BD
:102560001A4800EB04100660184800EB041087803E
:10257000164800EB041080F80C80144800EB04109F
:10258000134901EB84118860114800EB8410056049
:1025900010480F4901EB841108610F480C4901EB09
:1025A000841188610D480A4901EB8411C86108490A
:1025B00001EB841001F046F80020BDE8F081FFE750
:1025C000641C042CC2DB4FF0FF30F6E76C060020E1
:1025D0006C050020E1240008E125000879240008AA
:1025E0002DE9F0470546894616461F4696F80080B5
:1025F000AC68B8F1010F0AD1237B012B00D100E0B8
:1026000000231A46A1882068FEF7BBF909E0237B66
:102610000BB9012300E000231A46A1882068FEF7C9
:10262000B0F93846BDE8F0871FB523482349C86094
:1026300023A00861FEF74AFA00F060FF00234FF480
:102640000052214921A0FFF779FF01231A462149B1
:102650001FA0FFF773FF4FF4E1321F491FA000F0E6
:10266000C7FE00F013FB052308221F491F4800F096
:1026700050F91E491EA000F08BF80120042102022F
:102680001D4BCDE90032CDE9021000231B4A1CA1ED
:102690001E4800F069FC1D4800F0BEFC1CA1002093
:1026A000FEF77EFA4FF47A725110044800F07CFD78
:1026B00000F022FB00BFFEE745320008001F0020AB
:1026C00068656C6C6F000000001001407379735FE7
:1026D0006C65640000080140003801407379735F45
:1026E00075617274000000005C0A0020440A00203A
:1026F0006D715F61707000008416002099100008F1
:102700005461736B5374617274000000381B0020B5
:102710004D696E6952544F5320426F6F74696E67F2
:102720002E2E2E2057616974696E6720666F7220A5
:102730004350552043616C6962726174696F6E2EFB
:102740002E2E0D0A0000000001460020704710B533
:10275000034614469A68FF2902D11068008910BD0B
:102760000020FCE70246002070472DE9F0410446B6
:102770000F4615469846A6683068008910B90020B3
:10278000BDE8F0812946306800F0D6F80120F7E76F
:1027900070B505460E46002438E01F4800EBC40023
:1027A000406888BB01201C4901EBC40148601A48FD
:1027B00040F8346000EBC400184901EB84118860D4
:1027C000164800EB841005601548144901EB84118C
:1027D00008611448114901EB8411086212480F493D
:1027E00001EB8411486111480C4901EB84118861A7
:1027F0000F480A4901EB8411C861084901EB8410B4
:1028000000F020FF002070BDFFE7641C022CC4DB39
:102810004FF0FF30F7E70000140900209408002073
:1028200065270008492700086B270008352800089D
:102830004F2700082DE9F0410446884615461E46FC
:10284000A7682946386800F0BDF83046BDE8F08139
:1028500010B5044604B910BD174800680461022091
:1028600015490968487314480068001D00F048F8CD
:1028700011480068007B114901EBC00040680E4917
:102880000968097B0D4A02EBC101884209D10A4857
:102890000068017B01208840094909688143084894
:1028A000016005480168091D064800F017F800F0AE
:1028B000B9F900BFCFE700004C000020EC22002057
:1028C000480000203800002004E003480068401C55
:1028D00001490860F9E700005400002048600268E0
:1028E0000A60026851600160704700604060704794
:1028F00001464868884201D1012070470020FCE76A
:10290000D0E900215160D0E9001211604060006000
:1029100070472DE9F04104460D4616461F462560D6
:10292000A680E780002020816081A08104F1100052
:10293000FFF7DBFFBDE8F08170B504460D46208946
:1029400020BB02201C49096848731B480068001D11
:10295000FFF7D6FF18490968097B184A02EBC10046
:10296000FFF7C6FF48B114480068017B012088408A
:10297000134909688143124801600F480168091D25
:1029800004F11000FFF7AAFF00F04CF96189A2885A
:10299000206801FB0206A28831462846FDF7EEFBBF
:1029A0006089401CE18890FBF1F201FB120060811C
:1029B0002089401E208170BD4C000020EC220020A8
:1029C000480000202DE9F04104460F462089E188A7
:1029D000884201DBBDE8F081A189A288206801FB63
:1029E0000205A28839462846FDF7C8FBA089401C8D
:1029F000E18890FBF1F201FB1200A0812089401CCC
:102A0000208104F11000FFF773FF58B96669304662
:102A1000FFF776FFA6F10408404600F0FDFA00F04B
:102A200001F900BF00BFD5E770B50446264800682D
:102A3000007B217A884230D023480068001DFFF7D0
:102A40005FFF21490968097B204A02EBC100FFF7BB
:102A50004FFF48B11C480068017B012088401C4999
:102A6000096881431A480160207A17490968087388
:102A700015490968097B154A02EBC100124909682A
:102A8000091DFFF72BFF10480068017B01208840DB
:102A90000F49096808430E49086004F10C00FFF76C
:102AA00027FF68B926693046FFF72AFF351F2846F9
:102AB00000F0B2FA6560287B207200F0B3F801E004
:102AC0000020207070BD00004C000020EC2200208F
:102AD0004800002010B5044600202070606020727D
:102AE00004F10C00FFF701FF10BD000070B50446B3
:102AF000207848B9012020702F48006860602E4877
:102B00000068007B207255E02B480068007B6168FC
:102B1000097B884229DD6068057B6168081DFFF735
:102B2000EFFE264901EBC500FFF7E2FE30B10120C0
:102B3000A840234909688143214801601E48006874
:102B4000007B616808736268111D127B1B4B03EBED
:102B5000C200FFF7C3FE6068017B0120884018496E
:102B6000096808431649086000BF02201249096835
:102B7000487311480068001DFFF7C2FE0E4909683E
:102B8000097B0E4A02EBC100FFF7B2FE48B10A48CA
:102B90000068017B01208840094909688143084891
:102BA000016005480168091D04F10C00FFF796FE5D
:102BB00000F038F870BD00004C000020EC2200202E
:102BC0004800002030B5144800684FF47A72B0FB1A
:102BD000F2F1B1F1807F00D31DE021F07F40401E73
:102BE0004FF0E022506150170F22002807DA130738
:102BF0001D0E0A4B00F00F04241F1D5503E01307A0
:102C00001C0E074B1C5400BF00204FF0E0229061C7
:102C10000720106100BF30BD0000002018ED00E06B
:102C200000E400E010B5144B1B68B3FA83F3C3F162
:102C30001F03D9B2114B03EBC1035A68101F104B8D
:102C40001B68984200D110BD0D4B1B6843B10C4B63
:102C50001B685B7B012B03D10023094C2468637341
:102C600001234373074B1860074B1B6843F08053E5
:102C7000054C236000BFE6E748000020EC2200205E
:102C80004C0000205000002004ED00E01FB5FFF7CD
:102C900099FF002405E0104901EBC400FFF725FE71
:102CA000641C202CF7DB0D48FFF71FFE0C48FFF7D4
:102CB0001CFE002040220B4BCDE901200093039025
:102CC0000346094A09A10B4800F04EF9094800F0F3
:102CD000A3F900F045FA1FBDEC22002038000020C7
:102CE00040000020B01F0020C928000849444C457E
:102CF00000000000741F00206FF00100FF21002879
:102D000007DA0A07140E094A00F00F031B1FD454F8
:102D100003E00A07130E064A135400BF0020FDF714
:102D2000F2F9FFF77FFF00BFFEE7000018ED00E0BB
:102D300000E400E02DE9FE4335A10020FDF730FF5F
:102D400035A10020FDF739FF42A10020FDF735FF36
:102D500031A10020FDF731FF4DA10020FDF72DFF2F
:102D60005BA10020FDF729FF684846683DE0A6F119
:102D70002C040FF29C1967480068844202D10FF2BC
:102D800098190FE0607B10B90FF290190AE0607B90
:102D9000022802D10FF2881904E0607B032801D1D8
:102DA0000FF280190027656B07E05F4928688842A9
:102DB00002D17F1C2D1D00E005E0218F606B00EB30
:102DC0008100A842F1D800BF208FA0EB0708208F18
:102DD000217B4B4604F11C02CDE90018029053A15F
:102DE0000020FDF7EAFE766800BF48488642BED163
:102DF00009A10020FDF7E1FE5548027855A1002009
:102E0000FDF7DBFE04A10020FDF7D7FEBDE8FE8341
:102E10001B5B324A1B5B48003D3D3D3D3D3D3D3D1A
:102E20003D3D3D3D3D3D3D3D3D3D3D3D3D3D3D3DD2
:102E30003D3D3D3D3D3D3D3D3D3D3D3D3D3D3D3DC2
:102E40003D3D3D3D3D3D3D3D3D3D3D3D3D3D3D3DB2
:102E50000D0A0000202020202020202020202020DB
:102E6000202020204D696E6952544F5320537973AE
:102E700074656D20496E666F202020202020202060
:102E80002020202020202020202020200D0A0000AB
:102E90005461736B204E616D65202020202020201E
:102EA0007C205374617465207C205072696F207C93
:102EB00020537461636B2055736564202F20546F19
:102EC00074616C2028576F726473290D0A0000002A
:102ED0002D2D2D2D2D2D2D2D2D2D2D2D2D2D2D2D22
:102EE0002D2D2D2D2D2D2D2D2D2D2D2D2D2D2D2D12
:102EF0002D2D2D2D2D2D2D2D2D2D2D2D2D2D2D2D02
:102F00002D2D2D2D2D2D2D2D0D0A000040000020E2
:102F1000554E4B004C00002052554E005244590073
:102F2000424C4B0053555300EFBEADDE2573207C61
:102F30002020257320207C20202530326420207C16
:102F4000202025303364202F20253033640D0A00E3
:102F5000580000204350552055736167653A20257D
:102F60006425250D0A0000002DE9FF5F04460F4689
:102F70009246DDF844B0DDF83880109820730020C8
:102F8000206103206073201DFFF7AFFC0F9808EB52
:102F90008006403EC14604E01D48C9F8000009F122
:102FA0000409B145F8D34FF08070F063C6F838A03B
:102FB0004FF014307063039830622660C4F814B088
:102FC000C4F818B0C4F834800F982087002504E0B6
:102FD000795D04F11C0041556D1C785D08B10E2D22
:102FE000F6DB04E0202104F11C0041556D1C0E2D80
:102FF000F8DB00212A20015504F12C00FFF775FCB5
:1030000004F12C010348FFF769FCBDE8FF9F0000B5
:10301000EFBEADDE4000002010B50446607B00B975
:1030200010BD00206073217B074A02EBC100211D07
:10303000FFF754FC217B01208840044909680843BC
:103040000249086000BFEBE7EC22002048000020A6
:1030500070B53A480068401C384908603848006834
:10306000401C3749086008460068B0F57A7F1DD3D8
:10307000002008603348007848B13348006833497D
:103080000968884203D9314800682F4908602E48F2
:103090000068642148432D490968B0FBF1F0C0F194
:1030A00064002B49087000202749086029480068FF
:1030B00000B970BD2848446826480068406920B3BC
:1030C00024480068806900B3224800688069401E77
:1030D0002049096888611F4800688069A8B91D48AF
:1030E000006840691B49096888611A480068001D2A
:1030F000FFF706FC17490968097B184A02EBC10073
:1031000014490968091DFFF7E9FB10E06668251FEF
:10311000286950B12869401E2861286928B92046CD
:10312000FFF7EEFB2846FFF777FF344600BF0A485B
:103130008442EBD1FFF776FD00BFBAE764000020C0
:103140007000002060000020540000205C0000207F
:10315000580000204C00002038000020EC22002005
:103160001FB50A48FFF7C1FB01201F218022084B31
:10317000CDE90032CDE902100023064A06A1094834
:10318000FFF7F2FE0748FFF747FF1FBD680000206A
:10319000B0200020D131000854696D65725461730C
:1031A0006B000000B022002070B504460D461646A4
:1031B000A661012020770448006828446061214608
:1031C0000248FFF78BFB70BD640000206800002000
:1031D00032E04FF0FF361948456826E02C46207F44
:1031E000012820D116496069096888420BD8D4E9C2
:1031F00003108847A06910B90020207703E0D4E9C4
:10320000050108446061207F01280CD10C496069E8
:103210000968401AB04204D2094960690968401A35
:1032200000E0304606466D6800BF04488542D5D1AF
:103230003046FFF70DFB00BFCBE700006800002021
:103240006400002010B50446224602A10020FDF7CC
:10325000B4FC10BD5B54696D65725D20E997B9E9F6
:10326000929FE5938DE595A6EFBC81E694B6E5883F
:10327000B0E79599E8A8803A2025730A000000007D
:1032800070B50446A56800212868FDF7C4FF00203A
:1032900070BD2DE9F04104460D461746A66815B1EC
:1032A000012D0AD104E000213068FDF7B4FF04E0ED
:1032B00001213068FDF7AFFF00BF00BF0020BDE86F
:1032C000F081000070B586B005460E46AC68324904
:1032D000206888421ED1012144F20400FDF77CFBE6
:1032E0004FF40070ADF8140018208DF8170003207B
:1032F0008DF8160005A92948FDF7AFFA4FF4806054
:10330000ADF8140004208DF8170005A92348FDF737
:10331000A4FA22E02249206888421ED101214804F3
:10332000FDF74AFB01210420FDF756FB0420ADF810
:10333000140018208DF8170003208DF8160005A939
:103340001648FDF78AFA0820ADF8140004208DF81D
:10335000170005A91148FDF780FAA0680190002028
:10336000ADF80800ADF80A00ADF80C000C20ADF87F
:103370000E000020ADF8100001A92068FDF78EFFB7
:1033800001212068FDF747FF06A10020FDF715FC8D
:10339000002006B070BD0000003801400008014068
:1033A0000044004075617274206F70656E0000000B
:1033B0002DE9F04706468A4617461C46B946D6F818
:1033C000088000250EE000BF2021D8F80000FDF79E
:1033D0002EFF0028F8D0D8F80000FDF7CBFF09F841
:1033E00005006D1CA542EED32046BDE8F087000025
:1033F0002DE9F04105460E461746002446E004EB51
:103400004400254901EB8000406800283DD101209F
:1034100004EB4401204A02EB8101486004EB4400C4
:10342000114641F8206004EB440001EB8000876006
:1034300004EB440001EB8000184901EB8411886023
:10344000164800EB841005601548144901EB8411FF
:1034500008611448114901EB8411086212480F49B0
:1034600001EB8411486111480C4901EB841188611A
:103470000F480A4901EB8411C861084901EB841027
:1034800000F0E0F80020BDE8F081641C022CB6DBFF
:103490004FF0FF30F7E700002C070020AC060020BB
:1034A000C532000881320008B1330008B534000885
:1034B000933200082DE9F04707468A4690461C469D
:1034C000C146BD6800260CE000BF80212868FDF7DA
:1034D000AEFE0028F9D019F806102868FDF74FFF56
:1034E000761CA642F0D300BF40212868FDF79FFE5E
:1034F0000028F9D02046BDE8F087000002480060AF
:10350000406000BF70470000180000202DE9F04126
:1035100004460D461646002C01DB0F2C03DD4FF050
:10352000FF30BDE8F081134850F82400F8B111488D
:1035300050F82400C069C8B10E4951F8241001F1B7
:103540002C00FFF7D3FA0B4951F8240051F824104E
:103550003246CB69294698470746064951F8241058
:1035600001F12C00FFF760FA3846DAE700BF4FF0B0
:10357000FF30D6E72C05002070B506461248456896
:103580001CE0A5F1240431462068FCF710FEA0B928
:10359000206918B1002120462269904701206071FE
:1035A000002008E0094951F8201019B9074941F8ED
:1035B000204070BD401C1028F4DB6D680248854235
:1035C000DFD14FF0FF30F4E7180000202C05002079
:1035D0002DE9F04104460D4616461F46002C01DB3E
:1035E0000F2C03DD4FF0FF30BDE8F081144850F898
:1035F000240008B3124850F824004069D8B110499B
:1036000051F8241001F12C00FFF770FA0C4951F821
:10361000240051F824103B463246D1F814C0294604
:10362000E0478046064951F8241001F12C00FFF7CD
:10363000FBF94046D8E700BF4FF0FF30D4E7000069
:103640002C05002010B5044614B94FF0FF3010BD12
:10365000074804F12401486002680A60026851606A
:10366000016000BF04F12C00FFF734FA0020EEE700
:10367000180000202DE9F04104460D4616461F466D
:10368000002C01DB0F2C03DD4FF0FF30BDE8F08193
:10369000144850F8240008B3124850F824008069F8
:1036A000D8B1104951F8241001F12C00FFF71EFA8F
:1036B0000C4951F8240051F824103B463246D1F809
:1036C00018C02946E0478046064951F8241001F108
:1036D0002C00FFF7A9F94046D8E700BF4FF0FF30B4
:1036E000D4E700002C0500202DE9F0410446002716
:1036F00056E0D4E9030145182E78322F01DBBDE8EE
:10370000F0817F1C206910302061072E46D2DFE84F
:1037100006F0040B14233240380004F11400D5E9FC
:10372000012140F8221039E004F11400A96850F892
:1037300021106A6840F8221030E004F11400A968F2
:1037400050F82110EA6850F82200014404F11400F6
:103750006A6840F8221021E004F11400A96850F8CA
:103760002110EA6850F82200091A04F114006A686E
:1037700040F8221012E0216968681038084420617E
:103780000CE00B49686809680844606000206070BC
:1037900004E029462046FEF76BFC00BF00BF00BFD7
:1037A000207810B160780128A3D000BFA7E70000FF
:1037B0006400002070B50446607838B90B49606831
:1037C0000968884202D8012060700DE06078022804
:1037D0000AD10022FF21A068FFF798FE0546002DC0
:1037E00001DD0120607000BF70BD0000640000209A
:1037F000002033E0324951F82010C0EBC00202EB48
:103800004202304B03EB8202D160C0EBC00101EBFE
:1038100041011A4602EB8101C968B1B10021C0EB38
:10382000C00202EB420203EB820211610121C0EBF4
:10383000C00202EB420203F82210C0EBC00202EB0E
:10384000420203EB8202517007E00021C0EBC0028C
:1038500002EB42021B4B03F82210401C0428C9DB78
:103860002CE0002425E0C4EBC40000EB4000154927
:1038700001EB8000C06800B91AE0C4EBC40000EBA3
:103880004000104911F8200088B1C4EBC40101EBDD
:1038900041010C4A02EB8100FFF78CFFC4EBC4012D
:1038A00001EB4101074A02EB8100FFF71DFF00BF5A
:1038B000641C042CD7DB0120FEF7CAFFD1E700000F
:1038C000843900084407002030313233343536372C
:1038D00038394142434445460500000001000000DC
:1038E000010000004000000005000000040000008E
:1038F0000100000047000000060000006400000016
:10390000000000000000000004000000E0FFFFFFD6
:1039100000000000000000006D715F6170700070B9
:10392000696E670005000000010000000100000052
:10393000500000000500000001000000020000002F
:103940005800000005000000050000000200000013
:103950000500000005000000030000000100000059
:103960000200000004000000E0FFFFFF0000000074
:10397000000000007379735F6C6564006D715F61B6
:1039800070700000D83800082439000800000000DA
:10399000000000000D0A5B5359535D20E5BC80E632
:1039A0009CBAE58AA8E68081E6A0A1E58786E5AE17
:1039B0008CE68890EFBC81E69C80E5A4A7E7A9BAD5
:1039C000E997B2E6898BE9809F3A20256420E59C3F
:1039D000882FE7A7925C720A00000000FC390008FB
:1039E000000000207400000024170008703A00084E
:1039F000740000207C2700003417000800A24A044D
:103A0000000000000000000001020304060708098E
:103A1000000000000000000000000000FFFFFFFFAA
:103A20000000000001020304010203040607080964
:103A30000204060800000000000000000000000072
:103A40000000000000000000000000000000000076
:103A50000000000000000000000000000000000066
:103A60000000000000000000000000000000000056
:04000005080000ED02
:00000001FF
