:020000040800F2
:10000000F01E002021010008E1060008DD060008BE
:10001000DF06000819050008D512000800000000DE
:100020000000000000000000000000005F0B00085E
:100030001B0500080000000045010008090C00082D
:100040003B0100083B0100083B0100083B010008A0
:100050003B0100083B0100083B0100083B01000890
:100060003B0100083B0100083B0100083B01000880
:100070003B0100083B0100083B0100083B01000870
:100080003B0100083B0100083B0100083B01000860
:100090003B0100083B0100083B0100083B01000850
:1000A0003B0100083B0100083B0100083B01000840
:1000B0003B0100083B0100083B0100083B01000830
:1000C0003B0100083B0100083B0100083B01000820
:1000D0003B0100083D1100083B0100083B010008FE
:1000E0003B0100083B0100083B010008DFF80CD091
:1000F00000F05AF900480047C9280008F01E002007
:10010000EFF30980704780F309887047EFF30880A8
:10011000704780F30888704740BA7047C0BA70478C
:100120000648804706480047FEE7FEE7FEE7FEE791
:10013000FEE7FEE7FEE7FEE7FEE7FEE70D0C000840
:10014000ED000008EFF30980002804D020E9F00F4B
:1001500008490A6810600749074A13680B60054997
:100160000A681068B0E8F00F80F309886FF0020E9B
:1001700070470000600000206400002040EA010396
:100180009B0703D009E008C9121F08C0042AFAD24D
:1001900003E011F8013B00F8013B521EF9D2704711
:1001A000D2B201E000F8012B491EFBD270470022B9
:1001B000F6E710B513460A4604461946FFF7F0FF66
:1001C000204610BD421C10F8011B0029FBD1801AEB
:1001D000704710B5002200E0521C835C8C5CA34287
:1001E00001D1002BF8D1D8B2E1B2401A10BD30B520
:1001F00004460020034600E05B1C934203D2E05C0F
:10020000CD5C401BF8D030BD034611F8012B00F83F
:10021000012B002AF9D118467047000070B50F4D28
:1002200000B92868002412E00A4602E09E4203D08A
:10023000521C1378002BF9D1DAB2224305D02BB12E
:1002400024B1002100F8011B04E00446401C06789C
:10025000002EE9D12860204670BD000090000020EB
:100260002DE9F05F93460F4680460446002601F0D4
:10027000C3F9D0F80090824614F8015B2DB100F06C
:100280003FF80068405DC007F6D12B2D02D02D2D20
:100290001AD0641E0021CAF800105A46394620467A
:1002A00000F032F8014627B13868A04201D1C7F802
:1002B0000080DAF80000022809D0CAF80090700522
:1002C00005D54842BDE8F09F46F48066E2E708465F
:1002D000F8E730B50B46014600202022012409E052
:1002E00021FA02F59D4205D303FA02F5491B04FAEF
:1002F00002F52844151EA2F10102F1DC30BD000018
:1003000000487047704900082DE9F05F8246007888
:10031000002715468B460AF10104B946302801D062
:100320009DB113E014F8010B0127782803D0582859
:1003300001D045B10AE00DB1102D07D100271025DD
:1003400014F8010B02E0082500E00A250026B0465B
:100350000EE005FB080005FB06F1012701EB104646
:100360001FFA80F8B6F5803F00D3B94614F8010BA8
:10037000294600F02BF80028EBDABBF1000F05D07E
:100380000FB1641E00E05446CBF80040B9F1000FF5
:1003900006D001F031F902210160C81EBDE8F09FCE
:1003A00048EA0640FAE70000064C074D06E0E06820
:1003B00040F0010394E8070098471034AC42F6D3AC
:1003C000FFF798FE684B0008884B00083A2800D2D7
:1003D000303820F02002412A01D3A2F137008842B0
:1003E00001D34FF0FF307047C943016070470029C7
:1003F000816802D041F0010101E021F0010181603A
:100400007047014600208968490700D501207047E0
:10041000C06C80B270470246002012680A4200D0C9
:1004200001207047014600208968090700D5012096
:100430007047000010B542680E4B0C791A400B68EB
:1004400042EA04221343436083680B4A1340D1E914
:10045000024222434C7943EA44031A438260C26A4F
:10046000097C22F47002491EC9B242EA0151C162FC
:1004700010BD0000FFFEF0FFFDF7F1FF70B507248F
:1004800009290AD9C568A1F10A0606EB4606B44057
:10049000A543B3401D43C56007E0056901EB410674
:1004A000B440A543B3401D4305611F23072A09D269
:1004B000446B521E02EB820293409C4391400C43DA
:1004C000446370BD0D2A09D2046BD21F02EB820275
:1004D00093409C4391400C43046370BDC46A0D3A41
:1004E00002EB820293409C4391400C43C46270BD76
:1004F000816841F00801816070470029816802D05D
:1005000041F4A00101E021F4A001816070478168FD
:1005100041F0040181607047FEE770470149C860FF
:10052000704700000020024070B505464FF43026A9
:10053000304600F059F8042811D1094C206940F0E8
:10054000020020616561206940F040002061304672
:1005500000F04AF8216941F6FD721140216170BD39
:100560000020024008490420CA68D20701D00120B7
:100570007047CA68520701D502207047C968C9068A
:10058000FBD50320704700000020024002480169AB
:1005900041F080010161704700200240F0B506463D
:1005A0004FF400570D46384600F01EF804280CD1D1
:1005B000064C206940F0010020613580384600F08B
:1005C00013F82169BA1E11402161F0BD00200240DC
:1005D0000348024941600349416070472301674570
:1005E00000200240AB89EFCD00B50346FFF7BAFF0C
:1005F00003E000BFFFF7B6FF5B1E012803D0002B0E
:1006000000D1052000BD002BF4D1FAE7F0B5CA787F
:10061000002502F00F03D20601D58A7813430A7829
:100620004FF00F0E12F0FF0F4FF001021CD00468C4
:100630000F8802FA05F63740B74211D14FEA850C10
:100640000EFA0CF724EA070703FA0CF43C43CF78C0
:10065000282F02D0482F02D002E0466100E0066158
:100660006D1C082DE4D304600C88FF2C1ED944684F
:100670005FF0000606F1080702FA07F50F882F4021
:10068000AF420FD14FEA860C0EFA0CF7BC4303FAC7
:100690000CF73C43CF78282F00D14561CF78482F05
:1006A00000D10561761C082EE4D34460F0BD0246FB
:1006B000002092680A4200D00120704702460020C4
:1006C000D2680A4200D00120704741617047016141
:1006D00070470AB10161704741617047FEE7FEE76C
:1006E0007047000070B50F23C47801780122F4B17F
:1006F000144C2468457804F4E064C4F5E064240AEA
:10070000C4F10406E3408478B5401C402C4301F159
:10071000E021230181F80034007800F01F018A40B5
:100720004009800000F1E020C0F8002170BD01F018
:100730001F0082404809800000F1E020C0F88021BD
:1007400070BD00000CED00E0034A516821F4404107
:10075000014351607047000000100240044A002924
:10076000516901D0014300E08143516170470000AD
:1007700000100240044A0029D16901D0014300E081
:100780008143D1617047000000100240044A0029F3
:10079000916901D0014300E08143916170470000FD
:1007A0000010024030B51F494A6812F00C031E4A7F
:1007B00003D0042B01D0082B21D002604A680F23FC
:1007C0001A4C03EA1212A35C0268DA4042604B68DA
:1007D000072505EA1323E35C22FA03F383604B68E1
:1007E00005EAD323E35CDA40C2604968032303EAE5
:1007F0009131231F595CB2FBF1F1016130BD4A68B0
:100800004B6802F470124FF0020413F4803F04EBC3
:10081000924202D04B689B0301D5054B00E0024B8E
:100820005A43CAE70010024000127A004800002034
:1008300000093D0008B501226946002000F01AF8C1
:10084000012802D04FF0FF3008BD9DF8000008BD20
:1008500010B5064C207808B900F03EFDD4E91B1015
:10086000814201D0012010BD002010BD9800002061
:1008700000F032BD10B5EFF31184202383F311880B
:1008800000F004F8E1B281F3118810BD2DE9F047C2
:100890001B4D0746164628780C4608B900F01CFD8B
:1008A00007EB470005EBC007A046D7E91B950024DE
:1008B00060374D4511D9B868441BB44200D3344663
:1008C0007868224641194046FFF758FCB868361B45
:1008D0002544A044A84200D10025A9EB0500B04260
:1008E00000D206463EB17868324641194046FFF7CD
:1008F00045FC3444354404B13D612046BDE8F087F1
:10090000980000202DE9F04107460B4815460E4699
:10091000007808B900F0E0FCEFF31184202080F3A8
:1009200011882A463146384600F008F8E1B281F3D2
:100930001188BDE8F08100009800002070B50E46D7
:10094000144900EB400001EBC0051446E86A183575
:1009500020B101280FD0022805D113E0284600F06D
:10096000EFFCA04201D2002411E022463146284685
:1009700000F00CFE0BE0284600F0E2FCA042F4D2AE
:100980000446F2E73146284600F0D3FD04462046EF
:1009900070BD00009800002070B505460C46084662
:1009A000FFF710FC024621462846BDE87040FFF7DD
:1009B000A9BF0FB408B504A900916A46039900F0D5
:1009C00003F801B05DF814FB2DE9F04198B006463C
:1009D00007A8029040200025CDE90305CDE9055682
:1009E00090460C4614F8011B002973D0252908D025
:1009F00002A800F07FFD05980028F3DA18B0BDE8E2
:100A0000F081002001212278232A1ED02B2A19D020
:100A10002D2A02D0302A08D102E040F0010001E086
:100A200040F00200641C0029EDD100222178A1F1E0
:100A300030030A2B0CD202EB820201EB4202303A65
:100A4000641CF3E740F00400ECE740F00800E9E73D
:100A50000023CFB22E2F0BD114F8011FA1F13007C4
:100A60000A2F05D203EB830301EB4303303BF3E78B
:100A70006C290DD068290BD0702954D00BDC2529A6
:100A800016D0582931D063290CD0642913D114E031
:100A900014F8011FECE7732934D075291BD078298D
:100AA00009D122E0D8F80000011DC8F80010017833
:100AB00002A800F01FFD641C9DE7D8F800100F1D70
:100AC000C8F800700968CDE900200A2202A800F0E9
:100AD00043FCF0E733E0D8F800100F1DC8F80070B1
:100AE0000968CDE900200A2208E0D8F800100F1D9F
:100AF000C8F800700968CDE90020102202A800F0B3
:100B00008FFCD8E7D8F80000011DC8F8001007686E
:100B100017F8011B0029CED002A800F0EBFC0598C5
:100B20000028F5DAC7E7D8F80000011DC8F8001062
:100B300001680820CDE9000503461022DEE705988C
:100B400000287FF75BAF049820B1024607A9304622
:100B5000FFF7D8FEDDE90410084405904EE7704722
:100B60000CB50021264801910091026842F48032C0
:100B700002604FF4A063026802F400320092019A0E
:100B8000521C0192009A12B9019A9A42F3D102685A
:100B9000920333D5012100911A490A6842F01002EC
:100BA0000A600A6822F003020A600A6842F0020240
:100BB0000A604168416041684160416841F4806178
:100BC0004160416821F47C114160416841F4E811C1
:100BD0004160016841F08071016001688901FCD5C4
:100BE000416821F003014160416841F00201416028
:100BF0004168C1F381010229FAD10CBD00910CBDFD
:100C0000001002400020024002F020BC0F4810B546
:100C1000016841F00101016041680D4A11404160E5
:100C200001680C4A11400160016821F480210160D3
:100C3000416821F4FE0141604FF41F018160FFF71C
:100C40008FFF05494FF00060086010BD00100240A2
:100C50000000FFF8FFFFF6FE08ED00E00029018824
:100C600002D041F0010101E021F001010180704753
:100C7000002930F8441F02D041F4004101E0C1F3E3
:100C80000E0101807047000030B5028C22F0010295
:100C90000284028C8388048B22F0020224F0730504
:100CA0000C882C430D8915434A882A43114DA842CC
:100CB0000BD0114DA84208D0104DA84205D0104DC0
:100CC000A84202D00F4DA8420DD122F008054A8952
:100CD00023F440732A4322F004058A882A438D892D
:100CE0001D43CB892B4383800483C988818602847A
:100CF00030BD0000002C01400034014000400140A4
:100D00000044014000480140028B22F008020A43DF
:100D10000283704770B5028C22F010020284028CAC
:100D20008488038B0D8823F4E6464FF6FF7303EAAD
:100D3000052535430E8922F0200203EA06161643E4
:100D40004A8803EA02123243104EB04202D0104EDB
:100D5000B04215D122F080064A8924F4406403EAA7
:100D60000212324322F040068A8803EA021232431A
:100D70008E8903EA86062643CC8903EA8404344339
:100D800084800583C9880187028470BD002C0140DE
:100D900000340140028B4FF6FF7322F4006203EA35
:100DA000012111430183704770B5028C22F48072D7
:100DB0000284028C8488838B0D8823F073031D4387
:100DC00022F400730E894FF6FF7202EA06261E43D4
:100DD0004B8802EA03233343104EB04202D0104E38
:100DE000B04215D123F400664B8924F4405402EA42
:100DF0000323334323F480668B8802EA03233343BF
:100E00008E8902EA06162643CC8902EA041434438A
:100E100084808583C9888187038470BD002C01404C
:100E200000340140828B22F008020A43828370471B
:100E300070B5028C22F480520284048C8288838BE9
:100E40000D8823F4E6464FF6FF7303EA0525354384
:100E500024F400560C8903EA043434434E8803EA30
:100E600006362643094CA04202D0094CA04205D1C7
:100E700022F480448A8903EA821222438280858395
:100E8000C988A0F84010068470BD0000002C014005
:100E900000340140828B4FF6FF7322F4006203EAB4
:100EA000012111438183704730B502881B4B1C4CD4
:100EB00098420DD0A0420BD0B0F1804F08D0194D10
:100EC000A84205D0184DA84202D0184DA84203D11F
:100ED00022F070054A882A43154DA84206D0154DC8
:100EE000A84203D022F44075CA882A4302808A8827
:100EF00082850A88028598420AD0A04208D00E4A0C
:100F0000904205D00D4A904202D00D4A904201D144
:100F1000097A01860121818230BD0000002C014048
:100F2000003401400004004000080040000C004074
:100F30000010004000140040004001400044014007
:100F40000048014036A003F05BF8384C0028A06050
:100F500009DA37A10020FFF72CFD4FF47A74204600
:100F600001F02AFFFBE701F0AFF9384900200860E3
:100F700048608860C86036A1A268FFF71AFD334E4A
:100F80004FF0FF351036314C10340121204601F06E
:100F9000F3FA2078A528F8D10B21601C01F0ECFAB7
:100FA0006188B1F5807F0DD819B104F10C0001F012
:100FB000E3FA012104F5867001F0DEFA94F80C01E1
:100FC0005A2806D0152001F0E1FA012001F0F4FEC4
:100FD000D9E77078012805D0022808D0032818D056
:100FE0002C460AE01948103001F06AFA03E017486D
:100FF000103001F0A5F904000ED0152001F0C6FA5A
:10100000002CC0D07278234618A10020FFF7D1FC35
:10101000B9E701F0F1F9EEE7062001F0B7FAB2E71F
:101020007379735F75617274000000001C0000200A
:101030005B4941505D206E6F207561727431206490
:101040006576696365210D0A00000000B80900207B
:101050005B4941505D207461736B207265616479F6
:101060002C2066643D25640D0A0000005B49415058
:101070005D20636D643D25303278206572723D25B8
:10108000640D0A001FB5022001F096FE1E4C0020E0
:101090002060642001F090FE20681D4900EB800074
:1010A00042001A480260012008701A490020FFF728
:1010B00080FC802618480A241525CDE90006CDE9D4
:1010C00002540023154A16A100F5C06002F052F93F
:1010D0001548CDE90006CDE902540023134A14A1B6
:1010E00000F23C4002F046F9134802F08FF9124832
:1010F0003C3002F08BF902F067FC00BF02F0B2FC5A
:10110000142001F059FEF9E7680000206C0000206F
:1011100059000020204B000840130020450F000814
:101120005461736B42000000401500200D4500081B
:101130005461736B430000004019002010B50F4C40
:1011400040F22551204600F030F858B1204600F01A
:10115000B9F80C490A4A0B68D0540868401CC0F31F
:10116000080008600821204600F018F8002804D084
:101170002046BDE8104000F0A5B810BD0038014081
:1011800020040020080000200029818902D041F4B9
:10119000005101E021F40051818170470246002096
:1011A00012880A4200D00120704730B501F01F02BA
:1011B00001240025C1F3421304FA02F2012B0FD0DF
:1011C000022B0FD0838A4FEA11210088134204FAC0
:1011D00001F400EA040001D000B10125284630BD29
:1011E0008389F0E7038AEEE710B5C1F3421301F0FB
:1011F0001F040121A140012B07D0022B07D014307E
:10120000002A026805D00A4304E00C30F8E71030E9
:10121000F6E78A43026010BD30B50446008A85B007
:101220000D464CF6FF710840E98801432182A189EF
:101230004EF6F3100140A8882A8910436A890A43B0
:101240001043A081A08A4FF6FF410840A9890143BD
:10125000A1826846FFF7A6FA1948844201D1039893
:1012600000E00298A189090400EBC00101EB001025
:10127000296801D5490000E08900B0FBF1F0642243
:10128000B0FBF2F109010B096FF018056B4300EB9D
:101290008300A3891D044FF0320306D503EBC00081
:1012A000B0FBF2F000F0070005E003EB0010B0FB2C
:1012B000F2F000F00F000843208105B030BD0000BF
:1012C000003801408088C0F308007047C1F308016E
:1012D00081807047FEE7000010B5124C03202061AA
:1012E000606111A0A06104F1A800E0614FF40070FA
:1012F00020620020A06260620BA12166E06204F51A
:101300002A71616610212067C4E91A10606709A17B
:10131000E01DFEF779FF08A12046FEF775FF2020AB
:10132000A07110BD980000205465726D696E616CEB
:1013300000000000525454005345474745520000F6
:101340000269C1688A4203D88068401A104400E0EC
:10135000501A401E704700002DE9FC5F0E008146C8
:10136000DDE90C47C6F1000098469346824600D45A
:101370000846012503E000BF90FBFBF06D1C5845BB
:10138000FADAA84500D9454624B1002E01DB7807DA
:1013900000D5641EB80702D5B8F1000F0FD0F807CA
:1013A0000DD164B1A5420AD220214846641E00F046
:1013B000A1F8D9F80C000028F3DABDE8FC9FD9F8B1
:1013C0000C000028F9DB002E02DA56462D2102E03F
:1013D000780707D52B21484600F08CF8D9F80C0087
:1013E0000028EADB07F0030002280FD1B8F1000F54
:1013F0000CD15CB1A54209D230214846641E00F0F0
:1014000079F8D9F80C000028F3DAD6E7CDE90047DF
:1014100043465A463146484600F002F8CDE7000000
:101420002DE9F84F8246DDE90A4B012698469146A0
:101430000D460846374602E0B0FBF9F07F1C4845F0
:10144000FAD2B84500D947465FEACB7017D1B4B19C
:101450005FEA8B7002D5B8F1000F02D02020009017
:101460000BE03020FBE75046641E009900F042F884
:10147000DAF80C00002838DB0CB1A742F3D3DAF815
:101480000C00002831DB00BFB8F1010F02D9A8F130
:10149000010803E0B5FBF6F0484502D306FB09F668
:1014A000F2E7DFF84C8000BFB5FBF6F000FB165505
:1014B00018F80010504600F01DF8DAF80C0000286B
:1014C00003DBB6FBF9F6002EEED15FEACB700CD051
:1014D000002C0AD0A74208D220215046641E00F0FA
:1014E00009F8DAF80C000028F2DABDE8F88F0000FD
:1014F0008C45000810B50446D4E90130421C9342E3
:1015000005D323681954A260E068401CE060D4E968
:101510000102824209D121682069FFF7F3F9A1682D
:10152000884203D04FF0FF30E06010BD0020A06083
:1015300010BD2DE9F047C4681746894606464FF0AE
:1015400000083069A04201D9051B02E0B168201AE9
:101550000D1AB0686D1E001BA84200D80546BD429A
:1015600000D33D4670682A4620444946FEF706FEF1
:10157000B0687F1B2C44A844A944A04200D1002499
:10158000F460002FDDD14046BDE8F0872DE9F04141
:1015900004468846D4E90207C51BE1686068164620
:1015A0000844B54206D94146FEF7E8FDB819E060A7
:1015B000BDE8F0812A464146FEF7E0FD761B08EBC8
:1015C000050132466068FEF7D9FDE660F0E70000ED
:1015D0000FB4084B10B504A902AA039800F020F834
:1015E000044602A9002000F0BCF9204610BC5DF8BA
:1015F00014FB0000631900080048704794000020A5
:1016000002E008C8121F08C1002AFAD170477047CB
:10161000002001E001C1121F002AFBD17047000029
:101620002DE9FF4F8BB088460546002606E02528A9
:101630000BD0DDE90D1290476D1C761C2878002830
:10164000F5D10FB03046BDE8F08F0024A146A24688
:101650000122AE4900E0044315F8013F203B02FAA5
:1016600003F00842F7D128782A2810D06FF02F0213
:101670002878A0F13001092915D809EB890102EB7E
:10168000410144F0020400EB01096D1CF0E758F839
:10169000041B5FEA010903D544F40054C9F10009B1
:1016A00044F002046D1C28782E2817D115F8010F7C
:1016B00044F004042A280ED06FF02F022878A0F1FD
:1016C000300109290AD80AEB8A0102EB410100EB3B
:1016D000010A6D1CF2E758F804AB6D1C28786C28E1
:1016E0000FD006DC4C2817D068280DD06A2814D1FA
:1016F00004E0742810D07A280FD10DE044F40014CF
:101700000AE044F4801401E044F440146978814212
:1017100002D104F580146D1C6D1C2878692865D0F1
:1017200006DC00288DD0632827D0642806D15DE030
:101730006E2808D073282AD0752877D0DDE90D12DD
:101740009047761CE0E0C4F30250022809D0032839
:101750000DD0D8F8001004280DD00E6008F1040850
:10176000D2E0D8F80010F217C1E90062F6E7D8F825
:1017700000100E80F2E70E70F0E718F8041B8DF8E9
:10178000001000208DF80100EB46012003E058F81E
:1017900004BB4FF0FF3061074FF0000701D40AE0AF
:1017A0007F1C57450DDA8742FADB1BF8071000292A
:1017B000F6D106E07F1C8742FCDB1BF807100029EE
:1017C000F8D1DDE90D23A9EB07008146214600F0A1
:1017D000B1F83044C61904E0DDE90D121BF8010B25
:1017E00090477F1EF8D22146484688E058F8040BFF
:1017F000C4F302514FF00A0B032900D100B20429AF
:1018000000D140B2002802DA40422D2102E0210539
:1018100005D52B218DF82410012104E006E0E10715
:1018200010D02021F6E708AF089113E058F8040B18
:10183000C4F302514FF00A0B032900D180B20429EE
:1018400000D1C0B20021EEE75946FEF742FD30312B
:1018500007F8011D0028F7D1ADEB070000F1200BC0
:10186000600702D524F4803401E04FF0010ADA4524
:1018700002DDAAEB0B0000E00020824600EB0B012A
:1018800008980144A9EB01000A90E00306D4DDE9C1
:101890000D2321460A9800F04DF806444FF0000948
:1018A00008E009A911F80900DDE90D12904709F1D6
:1018B0000109761C08998945F3DBE0030CD5DDE9C5
:1018C0000D2321460A9800F035F8064404E0DDE9CE
:1018D0000D1230209047761CBAF10001AAF1010ADE
:1018E000F5DC05E0DDE90D1217F8010B9047761CD9
:1018F000BBF10001ABF1010BF4DC0A982146DDE9F4
:101900000D2300F005F806446D1C97E60928010038
:101910002DE9F041044600251E461746880404D4EC
:1019200005E039462020B0476D1C641EF9D52846D5
:10193000BDE8F0812DE9F041044600251E469046A1
:10194000C80301D5302700E02027880404D505E02E
:1019500041463846B0476D1C641EF9D52846BDE89F
:10196000F0810A68531C0B601070704710B58068D6
:1019700000210068FEF73BFD002010BD10B5806817
:1019800031B1012907D002290AD04FF0FF3010BD34
:101990000068002101E000680121FEF728FD03E056
:1019A000417962F306014171002010BDF0B58668EF
:1019B000354D0124307987B0072803D804FA00F0A8
:1019C00087B228E03149092807D808380D4604FABB
:1019D00000F087B20121082008E00F281AD80A3841
:1019E00004FA00F087B22A4D01211020FEF7CEFE46
:1019F000ADF8147000278DF8177005A92846FEF77A
:101A000005FE244930684FF40045884206D1012183
:101A100040150EE0274601210420E7E71E498842D1
:101A200002D10121001504E01C49884203D10121A3
:101A30002846FEF7ABFE2846FEF786FE4FF46020F0
:101A4000CDE902078DF8047000978DF805708DF8C8
:101A5000104069463068FEF7EDFC01213068FEF762
:101A6000C6FC3068FEF744FD3068FEF7DBFC00285A
:101A7000FAD13068FEF74BFD3068FEF7C2FC002853
:101A8000FAD107B0F0BD000000080140000C014091
:101A9000001001400024014000280140003C0140AA
:101AA00070B584681546022B02D24FF0FF3070BD2E
:101AB0006079217900F07F0301222068FEF7DEFCC7
:101AC00001212068FEF719FD02212068FEF7A3FC22
:101AD0000028F9D002212068FEF786FC2068FEF776
:101AE00097FC2880022070BD2DE9F04106464FF09A
:101AF000FF340F2A2CD8174D002000BF05EBC0077C
:101B00007F793F0621D405EBC004677947F0800751
:101B1000677145F83010227103B905230E4963F34C
:101B2000060701EB8010677106600C498460016153
:101B30000B4901620B4941610B4981610B49C1614C
:101B400002F0B4FA0020BDE8F081401C0428D5DB87
:101B50002046F8E718100020180F0020AD190008E3
:101B60006D190008A11A0008711B00087D190008F2
:101B70004FF0FF307047000010B5022809DA1BA1B2
:101B80000020FEF716FF1C490020FEF712FF1BA1E4
:101B900026E04C6827A12046FEF71BFB58B127A181
:101BA0002046FEF716FBA0B12246BDE810402549AD
:101BB0000020FEF7FEBE244C24A100202268FEF780
:101BC000F8FE2F49206801EB802002F00DFB2DA1CB
:101BD00006E038A10020FEF7ECFE02F035FC3EA145
:101BE000BDE810400020FEF7E4BE00000D0A55736A
:101BF0006167653A0D0A0000744900082020617091
:101C00007020756E6C6F61642020202020202020C1
:101C100020202D20E58AA8E68081E58DB8E8BDBDAD
:101C2000E68980E69C89E689A9E5B1952041707036
:101C30000D0A00006C6F616400000000756E6C6F2F
:101C400061640000BC490008140000200D0A5B41DB
:101C500050505D20E6ADA3E59CA8E4BB8EE6A7BD91
:101C6000E4BD8D20256420E58AA0E8BDBDE58AA8F5
:101C7000E68081204170702E2E2E0D0A000000009B
:101C8000006000085B4150505D20E58AA8E6808135
:101C90002041707020E58AA0E8BDBDE5AE8CE6AFBE
:101CA00095E5B9B6E5B7B2E68C82E8BDBDE38082C2
:101CB0005C720A000D0A5B4150505D20E6ADA3E561
:101CC0009CA8E58DB8E8BDBDE58AA8E680812041E5
:101CD00070702E2E2E0D0A005B4150505D20E58D58
:101CE000B8E8BDBDE5AE8CE68890EFBC8CE6B29955
:101CF000E7AEB1E5B7B2E99A94E7A6BBE380825CB0
:101D0000720A000001A10020FEF746BE1B5B324AAA
:101D10001B5B313B314800002DE9FC410C46054678
:101D2000032811DA55A10020FEF743FE56A100203A
:101D3000FEF73FFE5BA10020FEF73BFEBDE8FC4145
:101D400062A10020FEF735BED4E90160804602F0B2
:101D500057F9070007D502B04246BDE8F04165A13A
:101D60000020FEF726BE6DA13046FEF732FAA8B17C
:101D70006CA13046FEF72DFA002821D06BA1304629
:101D8000FEF727FA002854D032466AA10020FEF759
:101D900010FE3846BDE8FC4102F094B80020014630
:101DA0000190042301AA384602F058F9030004D434
:101DB000019B42466CA1009322E0424674A134E0AC
:101DC000042D01DA7CA137E087A14046FEF701FA35
:101DD000D0B187A14046FEF7FCF9A8B10022114618
:101DE000E068FEF73DFA0190042301AA002138467D
:101DF00002F072F9030016D4019B42467FA10093C2
:101E00000020FEF7D6FDC4E7E4682046FEF7DAF9C5
:101E1000034622460021384602F05EF94346224638
:101E200080A10090ECE7424689A10020FEF7C1FDA9
:101E3000AFE7042D04DA90A10020FEF7BAFDA8E771
:101E400000221146E068FEF70BFA0646052D05DB79
:101E5000002211462069FEF703FA00E00020044644
:101E600002463146384602F049F8CDE90040334693
:101E700042468CA10020FEF79CFD8AE70D0A5573AF
:101E80006167653A0D0A000020206465762072655E
:101E9000616420203C6465765F6E616D653E0D0A6D
:101EA0000000000020206465762077726974652048
:101EB0003C6465765F6E616D653E203C76616C2F9B
:101EC000737472696E673E0D0A000000202064651D
:101ED0007620696F63746C203C6465765F6E616D1B
:101EE000653E203C636D643E205B6172675D0D0A58
:101EF000000000000D0A5B4445565D204572726F7C
:101F0000723A204465766963652027257327206E21
:101F10006F7420666F756E64210D0A0072656164CE
:101F2000000000007772697465000000696F6374D7
:101F30006C0000000D0A5B4445565D20556E6B6ECB
:101F40006F776E206F7020272573272E20557365BD
:101F500020726561642F77726974652F696F63748D
:101F60006C2E0D0A000000000D0A5B4445565D20F2
:101F7000526561642027257327202D3E2056616C11
:101F80003A202575202830782558290D0A000000B0
:101F90000D0A5B4445565D20526561642027257318
:101FA00027206661696C65642120436F64653A206F
:101FB00025640D0A000000000D0A55736167653A3B
:101FC00020646576207772697465203C6465765F6D
:101FD0006E616D653E203C76616C2F737472696E24
:101FE000673E0D0A00000000756172740000000079
:101FF0007379735F75617274000000000D0A5B44B1
:1020000045565D2057726974652027257327203C4B
:102010002D20257520283078255829204F4B0D0A72
:10202000000000000D0A5B4445565D2053656E7448
:1020300020737472696E67202725732720746F20C0
:102040002573202D3E205265743A25640D0A000048
:102050000D0A5B4445565D2057726974652027253B
:102060007327206661696C65642120436F64653A5B
:102070002025640D0A0000000D0A55736167653A5A
:102080002064657620696F63746C203C6465765FBC
:102090006E616D653E203C636D643E205B617267DE
:1020A0005D0D0A000D0A5B4445565D20696F63743F
:1020B0006C202725732720636D643A2564206172A4
:1020C000673A30782558202D3E205265743A2564B1
:1020D0000D0A000070B50DA10020FEF76AFC114D3D
:1020E000002400BF04EB440005EB800155F82020DC
:1020F0008B680DA10020FEF75CFC641C072CF1D35B
:10210000BDE870400BA10020FEF753BC0D0A4176DC
:1021100061696C61626C6520436F6D6D616E6473A3
:102120003A0D0A00984800082020252D31307320F0
:102130002D2025730D0A000001F006BF01F010B834
:1021400006A10020FEF735FC0C4801680C4A01F49A
:10215000E06111430160BFF34F8FFEE70D0A5B534F
:1021600059535D2053797374656D205265626F6FAA
:1021700074696E672E2E2E0D0A0000000CED00E033
:102180000400FA05F0B50F4D00220123AB6006E014
:102190008318DC781B6864F31F632B60121D131D0A
:1021A0008B42F5D98A420BD200231C4604E0865D9F
:1021B000E700BE403343641C16198E42F7D32B60F0
:1021C0002868F0BD0030024070B5044648680D46EE
:1021D000062819D2DFE800F018034B192335E06810
:1021E000E968084401F00CFFA968002804EB8101AC
:1021F000486109DB94F89810082905D204EB8102A4
:10220000491C84F89810906770BDA868E96804EBD1
:10221000800062694069BDE8704001F06FBEA86847
:10222000E96804EB80004669E06844182046FDF741
:10223000C9FF034622463046BDE87040002101F048
:102240004BBFA868042304EB800000214669E868BE
:1022500004EB80023046143201F000FF0028D3DC8A
:1022600002206070A66020691038206170BDA868E7
:1022700004EB8000406901F025FEA96804EB8101B0
:10228000486170BD70B50D46044600F08BF930B161
:10229000FEF79EF93420FEF741F925440EE04FF099
:1022A000FF3070BD2046FEF73FF9042804D0FEF74A
:1022B0006DF96FF0010070BD04F58064A542F1D89E
:1022C000FEF764F9002070BD10B501214020FEF733
:1022D00045FA064901208860FEF77AF93420FEF7B6
:1022E0001DF9BDE81040FEF751B900000030024072
:1022F0002DE9F0410E4615460746114600F052F909
:1023000030B1FEF765F93420FEF708F9002410E03B
:102310006FF00200BDE8F081301901883819FEF72E
:102320003DF9042804D0FEF731F96FF00300F1E71E
:10233000A41CAC42F0D3FEF729F90020EAE7000024
:102340002DE9F0411F4D0446287B68B1618859B1E1
:1023500004F10C000746FFF715FFA168884206D07C
:102360006FF00100BDE8F0814FF0FF30FAE76288BE
:10237000D00704D0FF20A118521C087392B26068E5
:1023800011490844114909680E1839463046FFF7CB
:10239000AFFF10B16FF00200E4E7628839463046C3
:1023A000FDF725FF10B16FF00300DBE76188A86837
:1023B00033460844A860626805A10020FEF7F9FAD8
:1023C0000020CFE7B809002000A0FFF71C00002084
:1023D0005B4941505D20646174612040253038784C
:1023E000202D3E20E698A0E5B084E588B020402569
:1023F0003038780D0A00000070B51A4C207B18B1F7
:102400002168A068884202D24FF0FF3070BD164D9F
:102410002868FFF7B7FE02460020207363689342E6
:1024200005D012A1FEF7C5FA6FF0010070BD0E498C
:1024300028680422091D00F57F70FFF759FF134932
:10244000286808441249800A086012486A6812A184
:1024500002600020FEF7ADFA286801F0C5FE0020FA
:1024600070BD0000B80900201C0000205B494150ED
:102470005D20637263206661696C3A20253038788C
:1024800020213D20253038780D0A000000A0FFF7FC
:1024900014000020180000205B4941505D2066694F
:1024A0006E697368206F6B2C20E58D87E7BAA7E80B
:1024B00087B3E78988E69CAC2025640D0A000000FC
:1024C000F8B505464088042802D24FF0FF30F8BD29
:1024D000E87BEC6860F31F6414B1B4F57F7F02D928
:1024E0006FF00100F8BD01F0AFFF1348144E15491D
:1024F0000078401C00F00707104800EB8720306090
:102500000968491C71604FF48061FFF7BBFE10B190
:102510006FF00200F8BD0C483A460460A9684160BB
:102520000021816001210173009408A1002033681B
:10253000FEF73FFA0020F8BD1400002000600008FC
:102540001C00002018000020B80900205B49415001
:102550005D2073746172742C20736C6F743D2564FC
:10256000207461726765743D2530387820746F740B
:10257000616C3D25640D0A00024603480B460021AC
:10258000806801F06BBD00001C00002001B504480C
:1025900001236A460021806801F09EFD08BD00000D
:1025A0001C000020054A904203D308440449884295
:1025B00001D900207047012070470000006000082A
:1025C000008000080020704770B5044600F093F8C2
:1025D000054600F035FF617AA94201D06572E060DE
:1025E000E168401A142811D3A079A84201D1012032
:1025F00000E00020217A814208D018B12169491CED
:10260000216102E06169491C6161207270BD70B591
:102610008468FF2909D081B1012916D0022918D078
:1026200003291BD04FF0FF3070BD2046FFF7CCFFD1
:10263000207A0128F8D0002070BD1500FBD020467C
:10264000FFF7C2FF207A2870F5E7002AF3D020694F
:1026500002E0002AEFD060691060ECE70020206102
:102660006061E8E738B5846819492068884202D17A
:102670000121042007E0174988424FF0010101D1F0
:10268000082000E01020FEF781F8A088ADF80000D7
:10269000E07908B1482000E028208DF803000320ED
:1026A0008DF8020069462068FDF7B0FF204600F073
:1026B00022F86072A179814201D1012000E000205E
:1026C000207200F0BDFEE06000202061606138BD36
:1026D00000080140000C014070B584681546204692
:1026E000FFF772FF207A012801D0002070BD012081
:1026F0002860042070BD10B581880068FDF7D7FF01
:10270000012800D0002010BD2DE9F041204EDDF859
:1027100018C00025C5EBC50406EB8404247E34B143
:102720006D1C042DF6DB4FF0FF30BDE8F081C5EBEA
:10273000C50706EB87044FF0010E84F818E046F851
:102740002710A2800BB1012100E00021A171BCF192
:10275000000F01D0012100E00021E1710021217270
:102760006172E160216161610A4901EB85118C6050
:102770000860094808610948086209484861094831
:1027800088610948C861084601F090FC0020CCE748
:10279000381100203810002065260008C5250008E3
:1027A000D9260008AD2700080F2600084FF0FF309B
:1027B000704710B5846821B101290BD0022907D1D7
:1027C0000FE0E07958B108E0A1882068FDF781FFAB
:1027D000002010BDE079012801D00022F4E7012299
:1027E000F2E7A1882068FDF769FFC0F10100C2B2DD
:1027F000EAE7000038B584680F492068884202D1B2
:102800000121042007E00D4988424FF0010101D168
:10281000082000E01020FDF7B9FF10208DF803001C
:1028200003208DF80200A088ADF8000069462068FA
:10283000FDF7ECFE002038BD00080140000C01400F
:102840002DE9F041124E002406EBC405AD7935B1F7
:10285000641C022CF8DB4FF0FF30BDE8F08106EB82
:10286000C4050127AF7146F834100949AA808039A0
:1028700001EB8411EB718D60086006480861064821
:1028800088610648C861084601F010FC0020E4E7B2
:1028900010040020F5270008A1280008B32700082D
:1028A00010B580681C461378C27981880068012BB6
:1028B00001D022B101E0012A02D0002200E0012271
:1028C000FDF707FF204610BD1FB5FDF7D1FF01F052
:1028D0000FFB4FF40054002322462A492AA0FFF799
:1028E000AFFF01231A462A4928A0FFF7A9FF4FF49A
:1028F000E132284928A001F08BFA4FF416522949F9
:1029000026A001F085FA28A000F0DAF9472000900F
:102910004FF47A730322264926A000F08BFF05238B
:102920000122264926A0FFF7DFF8002000900123AE
:102930002246254925A0FFF7E7FE00F0CFFB2549F9
:1029400002230822A1F1180000F074FA214922A004
:10295000183900F085F822480A23162280218DE8D4
:102960000F0000231F4A20A100F51E7000F002FD99
:10297000204800F04BFD20A10020FEF70DF800F0EC
:10298000E3FBFEE7001001407379735F6C65640040
:1029900000080140003801407379735F75617274FB
:1029A00000000000004400406F6C656400000000FF
:1029B0000004004070776D5F6C6564000024014086
:1029C0006164635F706F7400000C01406B65793166
:1029D00000000000301300206D715F617070000016
:1029E00040170020851000085461736B53746172A6
:1029F00074000000B81900204D696E6952544F539D
:102A000020426F6F74696E672E2E2E205761697495
:102A1000696E6720666F72204350552043616C6970
:102A200062726174696F6E2E2E2E0D0A0000000016
:102A3000002070478068FF2901D00020704700689F
:102A4000008970470020704710B580681146006803
:102A500002891AB100F0FEF9012010BD002010BD5E
:102A600070B5144B002200BF03EBC20464682CB1A4
:102A7000521C022AF8DB4FF0FF3070BD03EBC2049A
:102A80000125656043F832100A49803901EB821153
:102A90008C60086008480861084808620848486176
:102AA000084888610848C861084601F0FFFA00201C
:102AB00070BD0000A8090020452A0008312A00083E
:102AC000492A0008CD2A0008352A000810B5806878
:102AD0001C461146006800F0F5F9204610BD10B5FF
:102AE000AE2000F057F9002010BD00002DE9F05F86
:102AF0008346A2F1200089465F2800D32022203A95
:102B0000D0B2134900EB4000002501EB400A4FF022
:102B1000010800BF1AF8057000240BEB050600BF82
:102B200008FA04F0384209EB0400C1B2F0B201D057
:102B3000012200E0002200F00DF8641CE4B2082C31
:102B4000EED36D1CEDB2062DE4D3BDE8F09F00007E
:102B50005846000830B580280FD240290DD201F028
:102B600007050123AB40054CC90800EBC110215CEF
:102B70000AB1194300E09943215430BD180B0020DD
:102B80007FB5044606293ED2DFE801F03D0306107A
:102B9000183000F06BF833E04FF480611B48FDF70C
:102BA00006FB1B4800210170417029E0100027D06E
:102BB000827841780078FFF7CDFF21E002B35668B4
:102BC000F6B1147855780DE07A2C02D90024083536
:102BD000EDB2382D14D829462046FFF787FFA41DF3
:102BE000E4B2761C3278002AEED109E009A16846E9
:102BF000FEF7EEFC03466A460021204600F080F80E
:102C0000002004B070BD4FF0FF30FAE7180B002031
:102C100028000020253034640000000010B500F0CA
:102C20007FFFAE2000F0B6F8202000F0B3F80020BF
:102C300000F0B0F8C82000F0ADF8A12000F0AAF82C
:102C40008D2000F0A7F8142000F0A4F8AF2000F0C9
:102C5000A1F84FF480610348FDF7A9FA00F006F8E7
:102C6000002010BD180B00200020704770B5134ED7
:102C7000002400BF04F1B000C0B200F08BF80020C7
:102C800000F088F8102000F085F800F09DFF782013
:102C900000F064FF402000F061FF002505EBC41048
:102CA000305C00F05BFF6D1CEDB2802DF6D300F0C0
:102CB000A5FF641CE4B2082CDCD370BD180B002007
:102CC000094910B5086009480861094808620948BF
:102CD0004861094888610948C86100208860084641
:102CE00001F0E4F9002010BDD80A00201D2C0008D6
:102CF000DF2A0008692C0008012D0008812B00083C
:102D00002DE9F0471F4632B12FB100251446A946E0
:102D1000DFF8788028E00020BDE8F0870A2E2AD06E
:102D20000D2E30D098F80100382808D988F8019085
:102D300088F800904FF480611548FDF738FA324664
:102D4000464698F8011098F80000FFF7CFFE30785B
:102D5000801DC0B230707A2804D986F8009070784F
:102D600008307070641C6D1CBD4202D22678002EA3
:102D7000D4D12846D0E788F8009098F8011008319F
:102D800088F80110EEE788F80090EBE728000020B3
:102D9000180B002010B5044600F016FF782000F054
:102DA000DDFE002000F0DAFE204600F0D7FEBDE890
:102DB000104000F023BF000010B501001DD00F4CE3
:102DC000A068016102214173001D00F02AF8A1688A
:102DD0000B4A087B02EBC0025368934204D10122E4
:102DE00082406068904360600448091D203000F014
:102DF00011F8BDE8104000F04DB910BD580000209A
:102E0000EC1B002002480169491C0161FBE700003E
:102E100058000020486002680A6002685160016042
:102E20007047D0E900124A60D0E90012116040609A
:102E30000060704702C0002120F8042B20F8023CFB
:102E400020F8081B20F8061C20F8041C00604060D5
:102E50007047000070B5044600890E46D0B9174D82
:102E60000221A8684173001DFFF7DBFFA968144A1F
:102E7000087B02EBC0025368934204D101228240D6
:102E800068689043686004F11000091DFFF7C2FFF5
:102E900000F000F96189A288206801FB0201304638
:102EA000FDF76CF96089E188401CB0FBF1F201FB91
:102EB000120060812089401E208170BD58000020D2
:102EC000EC1B002070B504460089E288904223D2B2
:102ED000A389A288206803FB0200FDF74FF934F8AC
:102EE0000C0F34F8061C401CB0FBF1F201FB120081
:102EF00024F8040934F8080B401C24F8080C606816
:102F0000A04209D00546FFF78CFF281F00F07EFA8B
:102F1000BDE8704000F0BEB870BD00002DE9F04182
:102F20001D4C0546A0682A7A017B91421DD0001DE8
:102F3000FFF777FFA168194801260A7B00EBC2035F
:102F40005F689F4204D1636806FA02F293436360AC
:102F50002A7A0A7300EBC200091DFFF75BFFA06825
:102F6000007B86406068064366602C6905F10C00B2
:102F700084420DD02046FFF754FF241F204600F066
:102F800045FA6C60207B2872BDE8F04100F082B801
:102F900000202870BDE8F08158000020EC1B0020C4
:102FA000002100F8041B02C000F8041B0060406010
:102FB000704700002DE9F04105460078254C0126B8
:102FC000F0B3A068DFF89080017B6868077BB942A6
:102FD0001DD9001DFFF725FF08EBC7014A688A428B
:102FE00004D1626806FA07F18A436260A1680A7B2D
:102FF000696808EBC2000A736968091DFFF70AFFD8
:103000006868017B06FA01F0616808436060A068A7
:1030100002214173001DFFF704FFA1680A7B08EB42
:10302000C2004368834203D160689640B043606049
:1030300005F10C00091DFFF7EDFEBDE8F04100E0D1
:1030400001E000F027B82E70A0686860007B28724D
:10305000BDE8F08158000020EC1B00200B484FF425
:103060007A710068B0FBF1F0B0F1807F0DD220F0F2
:103070007F414FF0E020491E4161054AF02182F86E
:10308000141D002181610721016170472C0000207F
:103090000FE000E00E4A0F495068B0FA80F0C0F12E
:1030A0001F00C0B201EBC00091684068001F884259
:1030B0000DD021B14B7B012B01D100234B7301219A
:1030C0004173D0600448016841F08051016070474D
:1030D00058000020EC1B002004ED00E01FB5FFF7B6
:1030E000BDFF134A002000BF02EBC001401C096075
:1030F00049602028F8DB0F480F4A2021006040601B
:1031000008300060406000200092CDE901100346C5
:1031100003900948094A0AA13C3800F02BF90648F7
:103120003C3800F073F9BDE81F4000F0E3B900003F
:10313000EC1B002078000020301A0020052E00082B
:1031400049444C45000000000449F02081F8140D6A
:103150000020FCF7D8FFFFF79DFFFEE70EE000E040
:103160002DE9FE432FA10020FDF716FC2FA1002022
:10317000FDF71FFC3CA10020FDF71BFC2BA100204C
:10318000FDF717FC47A10020FDF713FC55A1002017
:10319000FDF70FFC6248A0F12805814644682EE047
:1031A000A868A4F12C025FA3824201D15EA30BE0C8
:1031B000507B20B1022804D0032804D004E05BA394
:1031C00002E05BA300E05BA3168F506B00215A4F17
:1031D00000EB860C06E000BFD0F80080B84503D1B4
:1031E000001D491C8445F7D8701A117BCDE90010E9
:1031F000029652A100201C32FDF7DBFB64684C45AF
:10320000CED10AA10020FDF7D4FB2A7854A10020DA
:10321000FDF7CFFB03B005A1BDE8F0430020FDF7AB
:10322000C8BB00001B5B324A1B5B48003D3D3D3D77
:103230003D3D3D3D3D3D3D3D3D3D3D3D3D3D3D3DBE
:103240003D3D3D3D3D3D3D3D3D3D3D3D3D3D3D3DAE
:103250003D3D3D3D3D3D3D3D3D3D3D3D3D3D3D3D9E
:103260003D3D3D3D0D0A0000202020202020202053
:1032700020202020202020204D696E6952544F5379
:103280002053797374656D20496E666F202020206D
:10329000202020202020202020202020202020202E
:1032A0000D0A00005461736B204E616D6520202073
:1032B000202020207C205374617465207C20507273
:1032C000696F207C20537461636B205573656420A3
:1032D0002F20546F74616C2028576F726473290D0E
:1032E0000A0000002D2D2D2D2D2D2D2D2D2D2D2DB8
:1032F0002D2D2D2D2D2D2D2D2D2D2D2D2D2D2D2DFE
:103300002D2D2D2D2D2D2D2D2D2D2D2D2D2D2D2DED
:103310002D2D2D2D2D2D2D2D2D2D2D2D0D0A00007A
:1033200080000020554E4B0052554E00524459002B
:10333000424C4B0053555300EFBEADDE2573207C4D
:103340002020257320207C20202530326420207C02
:10335000202025303364202F20253033640D0A00CF
:103360004350552055736167653A20256425250D26
:103370000A0000002DE9F0030E46DDE90751069C26
:10338000099F01734FF0000C0321C0F810C0417376
:10339000011D41608160994604EB85012346DFF8F9
:1033A0006480403902E000BF43F8048B8B42FBD3BA
:1033B0004FF08073C1E90E234FF01432C1F8209012
:1033C0004A6347618761446301600587002102E029
:1033D0004318491C1A77725C32B10E29F8DB06E0FB
:1033E0004318491C1A7700E020220E29F8DB80F8E8
:1033F0002AC02C30014600604060BDE8F00302485E
:10340000FFF708BDEFBEADDE8000002010B504461A
:10341000407B00280FD000206073207B064901EB21
:10342000C000211DFFF7F6FC217B012088400349E5
:103430004A681043486010BDEC1B00205800002073
:103440000148806970470000580000202DE9F041D4
:10345000264CA069401CA061E069401CE061B0F509
:103460007A7F12D30021E1612046627840691AB167
:103470002269824200D92061226964235A43B2FB47
:10348000F0F0C0F1640020702161A06800282AD00B
:10349000164E426920367568FAB18169E9B1491E54
:1034A00081611AD18261001DFFF7BBFCA168104A3F
:1034B000087B091D02EBC000FFF7ACFC0DE06F6854
:1034C000E8682C1F40B1401E206105D12846FFF757
:1034D000A8FC2046FFF79AFF3D46B542EFD1BDE874
:1034E000F041FFF7D7BDBDE8F08100005800002093
:1034F000EC1B00201FB50B4801231F220060406019
:10350000094840218DE80F000023084A08A100F572
:103510008070FFF72FFF04B00848BDE81040FFF7A8
:1035200075BF000088000020B01A00204135000857
:1035300054696D65725461736B000000B01B00200C
:10354000DFF85C804FF0FF3708F130063D467468C5
:1035500020E0207F01281CD16169D8F81800814241
:103560000ED8D4E903108847A06930B161690144DD
:103570006161207F012803D00BE00021217708E062
:103580006169D8F8182040468A1AAA4201D2806997
:103590000D1A6468B442DCD12846FFF70DFCD5E76C
:1035A0005800002010B5846800212068FDF756FB04
:1035B00004492068884202D10021FDF759FB002010
:1035C00010BD0000002C014000F13402012905D09B
:1035D000022905D0032905D0042905D010467047DB
:1035E000383070473C307047403070472DE9F04725
:1035F0002C4C146001252C4C1D804FF480794FF425
:10360000007AA04214D1012909D002290AD0032945
:103610000BD0042901D1C0141880BDE8F087A3F8AD
:103620000090FAE7A3F800A0F7E74FF48060F3E713
:103630000226B0F1804F11D0DFF8708040271C4C7B
:103640004FF0800C40451FD1012915D0022915D01B
:10365000032916D00429E0D1146009E00129DCD047
:10366000022905D0032905D00429D6D10820D3E7A3
:103670001E80D2E70420CFE71F80CEE7A3F800C06A
:10368000CBE714601D80C8E70A4DA842C5D114607D
:103690000129F1D00229F1D00329C0D00429C1D0D9
:1036A000BBE7000000080140002C0140000400407E
:1036B000000C01400008004010B5806831B10129BC
:1036C00007D002290AD04FF0FF3010BD006800215A
:1036D00001E000680121FDF7C1FA09E0818894B298
:1036E000A14200D20C46017A0068FFF76DFF04800A
:1036F000002010BD70B584688AB009AB217A08AA91
:103700002068FFF773FF3F490898884202D10121E2
:10371000042007E03C4988424FF0010101D1082014
:1037200000E01020FDF732F8BDF82400ADF81C00D1
:1037300018208DF81F0003208DF81E0007A9089897
:10374000FCF764FF314E2068B04204D10121C0145F
:10375000FDF71CF80FE0B0F1804F06D02C498842ED
:103760004FF0010104D1022003E00121084600E0EE
:103770000420FCF7FFFFE088ADF81000A0880025CA
:10378000ADF81400ADF81250ADF816508DF8185081
:1037900004A92068FDF788FB6020ADF80000012037
:1037A000ADF80200ADF80850ADF80650207A0128B7
:1037B00008D002280BD003280ED0042811D0681E90
:1037C0000AB070BD69462068FDF75EFA0DE06946F3
:1037D0002068FDF79FFA08E069462068FDF7E4FAE3
:1037E00003E069462068FDF723FB2068B04202D160
:1037F0000121FDF73DFA01212068FDF72FFA002095
:10380000DEE7000000080140000C0140002C0140F0
:103810000004004010B580681446022B02D24FF01D
:10382000FF3010BD017A0068FFF7CEFE00882080CF
:10383000022010BD2DE9F041194EDDF818C000241A
:1038400004EB440506EB85056D7AED0706D0641C94
:10385000042CF5DB4FF0FF30BDE8F08104EB4407AA
:1038600006EB87054FF0010E85F809E046F82710B2
:103870000C492A72AB8001EB8411A5F806C08D605B
:103880000860094808610948086209484861094810
:1038900088610948C861084600F008FC0020DBE7A1
:1038A000A8120020A8110020F5360008A535000850
:1038B00015380008BD380008B93600082DE9F04178
:1038C00084681E464FF0FF37022B12D31588A0885C
:1038D000A84200D20546217A2068FFF775FE0580D0
:1038E000207A012808D002280BD003280ED0042803
:1038F00011D03846BDE8F08108212068FDF704FAB0
:103900000DE008212068FDF745FA08E0082120684D
:10391000FDF788FA03E008212068FDF7BBFA30467E
:10392000E8E7000070B588B0002417A1FCF776FC2A
:103930006D4606E045F8240013A10020641CFCF746
:103940006DFC08B1082CF5DB002C11D00F4E0025C2
:1039500005EB450056F820100098FCF73AFC48B1FA
:103960006D1C072DF4D30AA10020009AFDF721F861
:1039700008B070BD05EB450006EB80006946426863
:1039800020469047F4E70000200000009848000817
:103990000D0A436F6D6D616E64206E6F7420666FEB
:1039A000756E643A20272573272E20547970652080
:1039B0002768656C702720666F72206F7074696F5E
:1039C0006E732E0D0A0000000D4910B5002008602E
:1039D00040210C48FCF7EBFB0BA10020FCF7E9FFB2
:1039E0000AA10020FCF7E5FF13A10020FCF7E1FF8E
:1039F00006A10020FCF7DDFFBDE8104000F080B814
:103A000040000020D81200200D0A00003D3D3D3D41
:103A10003D3D3D3D3D3D3D3D3D3D3D3D3D3D3D3DD6
:103A20003D3D3D3D3D3D3D3D3D3D3D3D3D3D3D3DC6
:103A30003D3D3D3D0D0A000020202020204D696EB7
:103A40006952544F5320525454205368656C6C2073
:103A500053797374656D20202020202020202020A1
:103A60000D0A000070B5214C214D1AE0FCF7E2FE72
:103A700000281ADB0D2819D00A2817D008282AD0C8
:103A80007F2828D021683F290BDAA0F120025E2A86
:103A900007D8C2B26A54491C216016A10020FCF765
:103AA00088FFFCF7D5FE0028E0D170BD2068002813
:103AB0000ADD00262E5410A13046FCF77AFF0C4890
:103AC000FFF730FF266003E00BA10020FCF771FF39
:103AD00000F016F8E5E720680028E2DD401E2060CF
:103AE00006A10020FCF765FFDBE700004000002096
:103AF000D8120020256300000D0A000008200800ED
:103B000001A10020FCF755BF6D696E6972746F7377
:103B1000232000000A20401EC0B2FCD270470000E3
:103B200038B501210820FCF731FEC020ADF80000B7
:103B300014208DF803000320074C8DF8020069461D
:103B40002046FCF763FD40212046FCF7C0FD8021A4
:103B50002046FCF7BCFD38BD000C014070B5194E85
:103B60000546002428064FF08001304602D5FCF7B8
:103B7000AEFD01E0FCF7A9FD6806050EFFF7CAFFE0
:103B800040213046FCF7A3FDFFF7C4FF402130463B
:103B9000FCF79BFDFFF7BEFF641CE4B2082CE1D3E9
:103BA00080213046FCF793FDFFF7B4FF40213046FB
:103BB000FCF78DFDFFF7AEFF3046BDE870404021B9
:103BC000FCF783BD000C014010B50B4C8021204652
:103BD000FCF77DFD40212046FCF779FDFFF79AFFB9
:103BE00080212046FCF771FDFFF794FF2046BDE8D9
:103BF00010404021FCF769BD000C014010B5094C94
:103C000080212046FCF761FD40212046FCF75FFD46
:103C1000FFF780FF80212046FCF759FDBDE81040EA
:103C2000FFF778BF000C014010B584680749206891
:103C3000884204D1002240F22551FDF7D5FA002137
:103C40002068FDF7A1FA002010BD000000380140F7
:103C500010B5806821B1012905D0FF290CD107E0FA
:103C60000068002101E000680121FDF78DFA03E002
:103C70000248002101604160002010BD08000020C2
:103C80002DE9F04785683E4886B000240460446012
:103C9000DFF8F0A028680327DFF8EC8004264FF057
:103CA0001809504527D1012144F20400FCF76EFDAC
:103CB000F001ADF800008DF803908DF802706946B0
:103CC00047464046FCF7A2FC3002ADF800008DF8F4
:103CD000036069463846FCF799FC25208DF81400EE
:103CE0008DF815408DF8164001208DF8170005A8B5
:103CF000FCF7F8FC1EE0254988421BD1012148044D
:103D0000FCF738FD01210420FCF740FDADF8006010
:103D10008DF803908DF80270694647464046FCF7DF
:103D200075FC0820ADF800008DF803606946384640
:103D3000FCF76CFCA8680190ADF80840ADF80C40A9
:103D40000C20ADF80A40ADF80E00ADF8104001A906
:103D50002868FDF761FA2868504504D1012240F235
:103D60002551FDF741FA01212868FDF70DFA08A158
:103D70000020FCF71EFE06B00020BDE8F087000022
:103D800008000020003801400008014000440040C5
:103D900075617274206F70656E0000002DE9F0414E
:103DA000856818491E46286814461746884203D17C
:103DB0000DE00A20FFF700F820212868FDF7EEF952
:103DC0000028F6D02868FDF77DFA206017E000256E
:103DD0000D4CDFF8388010E00120FEF7EDFF206881
:103DE00061688842F8D0616818F801007855606809
:103DF000401CC0F3080060606D1CB542EFD3304634
:103E0000BDE8F081003801400800002020040020B7
:103E10002DE9F041164C002303EB430504EB850527
:103E20006D6835B15B1C022BF6DB4FF0FF30BDE84F
:103E3000F08103EB430604EB860501276F6044F82D
:103E400026100B49AA60803901EB83118D60086050
:103E500008480861084808620848486108488861BD
:103E60000848C861084600F021F90020DFE700009B
:103E7000A0060020813C0008293C00089D3D000868
:103E8000893E0008513C00082DE9F0411F461646C6
:103E9000002485680AE080212868FDF77FF9002862
:103EA000F9D0315D2868FDF711FA641CBC42F2D3E9
:103EB00040212868FDF772F90028F9D03846BDE89E
:103EC000F081000070B5094C054654F8250050B14A
:103ED000026A0AB10021904754F825100020487169
:103EE00044F8250070BD4FF0FF3070BD5003002036
:103EF0000148006040607047000000202DE9F0415B
:103F00000F46164604464FF0FF31102817D20D4DCC
:103F100055F8240098B1C2698AB12C30FFF74AF8ED
:103F200055F8240032463946C3699847064655F885
:103F300024002C30FEF7F2FF3046BDE8F081084641
:103F4000FBE700005003002070B513A10020FCF730
:103F500030FD18A10020FCF72CFD1E4E00257468D2
:103F60000AE000BFA4F124002A4603686D1C1AA1D0
:103F70000020FCF71EFD6468B44201D0002CF1D192
:103F80001DB918A10020FCF714FDBDE8704009A17F
:103F90000020FCF70EBD00000D0A526567697374BE
:103FA000657265642056465320446576696365737F
:103FB0003A0D0A002D2D2D2D2D2D2D2D2D2D2D2D94
:103FC0002D2D2D2D2D2D2D2D2D2D2D2D2D2D2D2D21
:103FD0002D0D0A0000000020205B25645D20257364
:103FE0000D0A000020284E6F2064657669636573B2
:103FF0002072656769737465726564290D0A000033
:104000002DE9F047134F8146134E4FF001087C68AD
:1040100017E000BFA4F1240549462868FCF7D9F849
:1040200070B92A6912B100212846904785F80580A9
:104030005FF0000056F8201049B1401C1028F9DB51
:104040006468BC42E6D14FF0FF30BDE8F08746F827
:104050002050FAE700000020500300202DE9F04135
:1040600088461E46174604464FF0FF31102819D2E5
:104070000D4D55F82400A8B142699AB12C30FEF7D5
:1040800099FF55F8240033463A46D0F814C041460B
:10409000E047064655F824002C30FEF73FFF304637
:1040A000BDE8F0810846FBE75003002010B568B179
:1040B000084A826200F124011368436213682C30BD
:1040C00059601160FEF76CFF002010BD4FF0FF300B
:1040D00010BD0000000000202DE9F04188461E467A
:1040E000174604464FF0FF31102819D20D4D55F8F0
:1040F0002400A8B182699AB12C30FEF75BFF55F815
:10410000240033463A46D0F818C04146E0470646F8
:1041100055F824002C30FEF701FF3046BDE8F08151
:104120000846FBE75003002070B50023164D174AE0
:104130005C1E194605EB8120066896420AD1D0F82C
:10414000FC03461C00D10020661C01D0984201D31C
:1041500003460C46491C0829ECDB601C0DD00C48BA
:1041600022460CA1C0E901430020FCF722FC05EB2C
:104170008420BDE8704000F037B8BDE8704011A160
:104180000020FCF716BC0000006000084D51564DA1
:10419000100000205B564D5D20E689BEE588B0E644
:1041A0009C80E696B0204170703A20E6A7BDE4BD41
:1041B0008D2025642C20E78988E69CAC2025640DA1
:1041C0000A0000005B564D5D20E69CAAE689BEE52C
:1041D00088B0E69C89E69588E79A84E58AA8E68017
:1041E00081204170700D0A002DE9F04704460068F7
:1041F000184988422BD1626817A10020FCF7D9FB2F
:10420000606802250026012700281ED9DFF8748087
:104210004FF0000904EBC6008168C5EBC50000EB58
:1042200045120B1908EB820017A1C0E9033908F801
:10423000227047702A460020FCF7BBFB60686D1CAB
:10424000761CB04201D9042DE4DB1C480770BDE8A0
:10425000F08700004D51564D5B564D5D20E58F9126
:10426000E78EB0204D51564D20E58C852C20E58CF5
:1042700085E590AB20256420E4B8AA204170700D3C
:104280000A000000B80600205B564D5D20E68C82D7
:10429000E8BDBDE58AA8E680812041707020E588F0
:1042A000B0E6A7BDE4BD8D2025642C20E59CB0E5DB
:1042B0009D803A2025700D0A0000000010000020AB
:1042C00070B5002604463546B1E000BFD4E90310BE
:1042D0000144322E0A786FDA1030761C2061132ADE
:1042E0006BD2DFE802F00A0C151F29332D37484A3C
:1042F0004D51555F6B75808A9800886803E0886827
:1043000004EB80004069496804EB810148618EE05C
:104310008868CA6804EB800004EB82024069526935
:104320001044F0E78868CA6804EB800004EB82025E
:1043300040695269801AE6E749680844103875E018
:104340004868404909680844606062E02046FDF71B
:104350003BFF6CE04868896804EB80004069884254
:1043600001D1256563E002DD4FF0010001E04FF06F
:10437000FF3020655BE0226D08E0226D92B3DBE741
:10438000226D012A53D1D7E7226D521C52BBD3E7CD
:104390008868CA6804EB800004EB820240695269B5
:1043A0001040B0E78868CA6804EB800004EB820222
:1043B000406952691043A6E740E040E08868CA6857
:1043C00004EB800004EB82024069526950409AE796
:1043D0008868CA6804EB800004EB82024069127DA1
:1043E000904090E723E08868CA6804EB800004EB03
:1043F00082024069127D104185E794F87420082AF2
:1044000007D204EB8203521C84F87420586520699B
:1044100092E765700BE094F874000028F9D0401E14
:10442000C0B284F8740004EB8000406D20612078F5
:10443000002803D0607801283FF448AF70BD257094
:1044400070BD0000700000202DE9F04114480024E8
:104450000470DFF850800227C7EBC70000EB47115C
:1044600008EB810508F821402C610026EC6005E08E
:1044700005EB8600806FFFF725FD761C95F8980008
:10448000B042F5DC85F898404FF0FF307F1CA86003
:10449000042FE1DBBDE8F04103A10020FCF789BA5D
:1044A00010000020B80600205B564D5D20E58AA86C
:1044B000E680812041707020E5B7B2E585A8E983E8
:1044C000A8E58DB8E8BDBDEFBC8CE7AD89E5BE853C
:1044D000E783A7E5BD952E2E2E0D0A0070B5044684
:1044E0004078012548B1022806D10022FF21A068AA
:1044F000FFF704FD002805DC70BD0349606809680A
:104500008842F9D8657070BD7000002000201C4FF3
:104510001C4D0123044600BFC0EBC00101EB40125B
:1045200005EB820157F82060CE6026B10C6105F8DA
:1045300022304B7001E005F82240401C0428EBDBE0
:10454000FFF7F2FD104F0024C4EBC40000EB441051
:1045500005EB8006F16861B1022C01DB397841B1CD
:1045600015F8200028B13046FFF7B8FF3046FFF7B6
:10457000A7FE641C042CE7DB0120FEF71DFCE2E72C
:1045800048460008B80600201000002030313233C1
:10459000343536373839414243444546050000003A
:1045A00001000000010000004000000005000000C4
:1045B00004000000010000004700000006000000A9
:1045C0006400000000000000000000000400000083
:1045D000E0FFFFFF00000000000000006D715F6160
:1045E00070700070696E6700050000000100000037
:1045F0000100000050000000050000000100000064
:104600000200000058000000050000000500000046
:10461000020000000500000005000000030000008B
:10462000010000000200000004000000E0FFFFFFA6
:1046300000000000000000007379735F6C65640087
:104640006D715F61707000009C450008E8450008CE
:10465000000000000000000000000000000000005A
:10466000002F000000000700070000147F147F14D3
:1046700000242A7F2A120023130864620036495559
:10468000225000000503000000001C224100000031
:1046900041221C000014083E08140008083E0808C7
:1046A000000000A060000008080808080000606022
:1046B0000000002010080402003E5149453E000061
:1046C000427F4000004261514946002141454B3143
:1046D000001814127F10002745454539003C4A490F
:1046E0004930000171090503003649494936000681
:1046F0004949291E000036360000000056360000E9
:104700000008142241000014141414140000412263
:10471000140800020151090600324959513E007E39
:104720001111117E007F49494936003E4141412225
:10473000007F4141221C007F49494941007F09090E
:104740000901003E4149497A007F0808087F0000BE
:10475000417F4100002040413F01007F0814224179
:10476000007F40404040007F020C027F007F040831
:10477000107F003E4141413E007F09090906003E8D
:104780004151215E007F09192946004649494931B6
:104790000001017F0101003F4040403F001F2040D9
:1047A000201F003F4038403F006314081463000797
:1047B0000870080700615149454300007F414100EE
:1047C000000204081020000041417F0000040201A3
:1047D000020400404040404000000102040000206C
:1047E00054545478007F48444438003844444420AA
:1047F00000384444487F00385454541800087E0957
:1048000001020018A4A4A47C007F0804047800001E
:10481000447D4000004080847D00007F10284400DB
:104820000000417F4000007C04180478007C0804EC
:10483000047800384444443800FC24242418001828
:10484000242418FC007C0804040800485454542014
:1048500000043F444020003C4040207C001C20409D
:10486000201C003C4030403C004428102844001CE0
:10487000A0A0A07C004464544C44000008364100D1
:104880000000007F00000000413608000002010225
:104890000402000000000000604A0008D520000863
:1048A000C84A0008BC4A00083D210008344A0008F4
:1048B000E84A000839210008744A0008F04A000854
:1048C000191D0008944A0008684A0008791B00086E
:1048D000F44A00086C4A0008051D0008184A000840
:1048E000C04A000841210008044A00080040404036
:1048F00040404040404041414141414040404040B3
:10490000404040404040404040404040400502025E
:10491000020202020202020202020202022020201D
:104920002020202020202002020202020202909079
:104930009090909010101010101010101010101077
:1049400010101010101010100202020202028888CB
:1049500088888888080808080808080808080808D7
:1049600008080808080808080202020240000000BF
:10497000ED4800082020617070206C6F6164202079
:10498000202020202020202020202D20E4BB8EE588
:10499000BD93E5898DE69C80E696B0E6A7BDE4BDB3
:1049A0008DE9878DE696B0E58AA0E8BDBDE58AA8C9
:1049B000E68081204170700D0A0000000D0A5B4105
:1049C00050505D20E69CAAE79FA5E6938DE4BD9C30
:1049D0002027257327E38082E8AFB7E4BDBFE794C3
:1049E000A82027617070206C6F61642720E688968C
:1049F000202761707020756E6C6F6164E380825C4B
:104A0000720A0000536F6674776172652072657375
:104A10006574204D43550000436C6561722052540B
:104A200054207465726D696E616C20736372656584
:104A30006E00000053686F772052544F532074610A
:104A4000736B732073746174757320616E6420439B
:104A5000505520737461636B20696E666F000000AF
:104A600068656C700000000061707000636C6561C7
:104A7000720000004C69737420616C6C2072656771
:104A8000697374657265642056465320646576695F
:104A900063657300526561642F57726974652F49AD
:104AA0006F63746C2056465320686172647761723C
:104AB00065206465766963657300000070730000AB
:104AC0007265626F6F74000053686F772061766162
:104AD000696C61626C6520636F6D6D616E647320DB
:104AE0006C697374000000006C73646576000000EC
:104AF000646576004C6F6164206F7220756E6C6F18
:104B0000616420564D2062797465636F646520612D
:104B10007070732064796E616D6963616C6C79008B
:104B20000D0A5B5359535D20E5BC80E69CBAE58ACB
:104B3000A8E68081E6A0A1E58786E5AE8CE68890B0
:104B4000EFBC81E69C80E5A4A7E7A9BAE997B2E6A5
:104B5000898BE9809F3A20256420E59C882FE7A770
:104B6000925C720A00000000884B000800000020E0
:104B70009800000000160008204C00089800002053
:104B8000581E000010160008000000000000000081
:104B90000000000000000000000000000000000015
:104BA000000000000000000000000000FFFFFFFF09
:104BB0000000000000A24A04000000000000000005
:104BC00001020304060708090000000002040608A9
:104BD00000000000010203040102030406070809A3
:104BE00000000000000000000000000000000000C5
:104BF00000000000000000000000000000000000B5
:104C000000000000000000000000000000000000A4
:104C10000000000000000000000000000000000094
:04000005080000ED02
:00000001FF
